:020000040000fa
:080000000002040000000000f2
:020000040000fa
:100400004f9120000e7f24000e01880000000000a4
:100410000c000700e075200001002000110007001b
:10042000000020000000e000020032000000020096
:1004300000000000de060200000000000040da00bc
:100440000000fe004440a900200220000000e0005f
:100450000300320000002000a00188004440a800f2
:100460000000060091018800800078000000eb0089
:1004700015003700e280400032a0b4009101ba00bc
:10048000e280400032a0b4009102ba00e280400055
:1004900032a0b4000002eb00472bde00f507b200eb
:1004a000602ce10004003a000059eb008301e900f0
:1004b000fdff3e00040037006128e100010032002a
:1004c0000082eb00040007001101ba000200e00006
:1004d000e8ff3a00000006003159ba008301e90044
:1004e0000c0032002159ba008301e90008003200f3
:1004f0000400e00003003a00e280400032a0b400b3
:10050000f5ff370011d9ba008301e900faff3a007c
:100510008100e800e180400032a0b4000000060045
:100520006c060400000000007606040000000000d5
:100530000040da000000fe00200e8800310e880026
:10054000430e8800540e8800020e8800000006004a
:1005500061016100530e80000300a10082817100df
:10056000530e88000000e90000004000621d2000da
:1005700001317800000006008460a9006701600076
:100580004c11dd0023058000f1ff2800818061000f
:10059000828070002105880068006000a10480004e
:1005a0000130a10080807000a104880000000600d6
:1005b0000021ef00110888002008880000000600d4
:1005c000000888000000060021e2a9009560a9004b
:1005d0009580a9008560a9008580a900000006001b
:1005e0008560a9008580a900670160004c11dd00cd
:1005f00043058000f1ff2800818061008280700047
:1006000041058800000178000207b2004411de00b5
:100610005305800081ff2f0081806100828070007f
:1006200051058800680160004311de00610161002e
:100630004b11dd00a104800001b0a1008280700098
:10064000a10488000008b2004700de0061006000dd
:100650004c00dd00a104800001c0a100808070007a
:10066000a1048800000006004211880000118800e3
:100670001111880000000600001180006600600073
:10068000e60f500002003a00301180000000060022
:1006900030118000f00fb200000006000111800050
:1006a000e6806000e68f50000e003a00040037003c
:1006b0002322ab00feff3a00221188000080e800f0
:1006c00010017800e00f5100f9ff3a000000060029
:1006d0002322ab00feff3a008100fb0021118800bd
:1006e0000000e80090407800e0cf5000f8ff3a00aa
:1006f000000006008001780002003700b159780040
:10070000040178000202e900e00f5100fbff3a000b
:10071000000006008001780002003700815978004f
:10072000040178000202e900e00f5100fbff3a00eb
:10073000000006009041780031c1510004003a00e9
:10074000e0cf5100020032000000e800f9ff37005e
:100750000200fb00000006008001780031417800b3
:1007600082597800e04f5100fcff3a00000006007b
:020000040000fa
:0200000401f009
:04000c00fbff0000f6
:020000040000fa
:0200000401f009
:040010007dff000070
:020000040000fa
:0200000401f009
:040014007fff00006a
:020000040000fa
:100008009802000098020000980200009802000080
:100018009802000098020000980200009802000070
:100028009802000098020000980200007e05000077
:100038009802000098020000980200009802000050
:10004800980200009802000098020000bc05000019
:10005800b405000098020000980200009802000011
:100068009802000098020000980200009802000020
:100078009802000098020000980200009802000010
:100088009802000098020000980200009802000000
:1000980098020000980200009802000098020000f0
:1000a80098020000980200009802000098020000e0
:1000b80098020000980200009802000098020000d0
:1000c80098020000980200009802000098020000c0
:1000d80098020000980200009802000098020000b0
:1000e80098020000980200009802000098020000a0
:1000f8009802000098020000980200009802000090
:10010800980200009802000098020000980200007f
:10011800980200009802000098020000980200006f
:10012800980200009802000098020000980200005f
:10013800980200009802000098020000980200004f
:10014800980200009802000098020000980200003f
:10015800980200009802000098020000980200002f
:10016800980200009802000098020000980200001f
:10017800980200009802000098020000980200000f
:1001880098020000980200009802000098020000ff
:1001980098020000980200009802000098020000ef
:1001a80098020000980200009802000098020000df
:1001b80098020000980200009802000098020000cf
:1001c80098020000980200009802000098020000bf
:1001d80098020000980200009802000098020000af
:1001e800980200009802000098020000980200009f
:0801f8009802000098020000cb
:020000040000fa
:10020800980200009802000098020000980200007e
:10021800980200009802000098020000980200006e
:100228009802000098020000980200007e05000075
:10023800980200009802000098020000980200004e
:10024800980200009802000098020000bc05000017
:10025800b40500009802000098020000980200000f
:10026800980200009802000098020000980200001e
:10027800980200009802000098020000980200000e
:1002880098020000980200009802000098020000fe
:1002980098020000980200009802000098020000ee
:1002a80098020000980200009802000098020000de
:1002b80098020000980200009802000098020000ce
:1002c80098020000980200009802000098020000be
:1002d80098020000980200009802000098020000ae
:1002e800980200009802000098020000980200009e
:1002f800980200009802000098020000980200008e
:10030800980200009802000098020000980200007d
:10031800980200009802000098020000980200006d
:10032800980200009802000098020000980200005d
:10033800980200009802000098020000980200004d
:10034800980200009802000098020000980200003d
:10035800980200009802000098020000980200002d
:10036800980200009802000098020000980200001d
:10037800980200009802000098020000980200000d
:1003880098020000980200009802000098020000fd
:1003980098020000980200009802000098020000ed
:1003a80098020000980200009802000098020000dd
:1003b80098020000980200009802000098020000cd
:1003c80098020000980200009802000098020000bd
:1003d80098020000980200009802000098020000ad
:1003e800980200009802000098020000980200009d
:0803f8009802000098020000c9
:020000040000fa
:10077000434f00004d4100004e4400004f20000058
:1007800031000000434f00004d4100004e44000086
:100790004f20000032200000766f00006c610000e6
:1007a0006e74000065000000303000000030000072
:0407b000360000000f
:020000040000fa
:1007b4000000fa000000eb00403a8800e00120004d
:1007c400303a8800213a800000fe2f00008060004b
:1007d400203a8800213a8000f0f32f000080600066
:1007e400203a88003200200080072000a109200060
:1007f4003374200080497800814978008249780068
:1008040012002000600420007105200023742000e1
:10081400804978008149780082497800000000000e
:10082400113a80000000270080806000000023004f
:10083400808f5000faff3a0000000000113a800057
:100844000002200000806000e00f5000fbff320037
:100854000080fa00000006000000fa00c082a9002f
:10086400c882a900c282a900ca82a9000080fa0035
:10087400000006000000fa0090ff2f003dff070073
:100884000000eb004dff070001c4290090f82f0081
:1008940046ff07000080fa00000006000000fa008e
:1008a400217420005204200073052000824878003f
:1008b4008348780042c7a9002135800000fe2f003c
:1008c400008060000010a0002035880011368000f0
:1008d400f00f2e0080806000003020000080700047
:1008e4001036880021742000520420007305200073
:1008f400824878008348780042c7a8000080eb0053
:10090400601988000080fa00000006000400fa0064
:100914002cff0700a0fa2f0030ff070080482c00ae
:10092400000f7800d0552100100798008560a900b9
:10093400520520009e0090001e00780049ff070029
:100944008560a9000080fa00000006000000fa009b
:100954001016800070006000e00f500002003200aa
:10096400c282a900050037001016800070006000e4
:10097400e00f500001003a00c282a8000080fa0093
:10098400000006000000fa005016800070006000ad
:10099400e00f500002003200ca82a90005003700af
:1009a4005016800070006000e00f500001003a0013
:1009b400ca82a8000080fa00000006000400fa00c1
:1009c400100798000000eb00000f780001003700ca
:1009d4001e0fe8009e009000900320000088b900dc
:1009e400000078009e0f5000f9ff3c000080fa00e0
:1009f400000006000400fa00100798000000eb0055
:100a0400000f78000300370040062000ebff0700ca
:100a14001e0fe8001e0090009e007800808f50009a
:100a2400f9ff35000080fa00000006000000fa001b
:100a34000041eb000180200010002000c3fe0700ed
:100a44000080fa00000006000000fa000041eb00fc
:100a54000180200020002000bcfe07000080fa0076
:100a6400000006000a00fa00c802a900c822a90072
:100a7400c882a900c922a900c982a900c9a2a900e3
:100a8400c9c2a900c9e2a900cdc2a800cd82a900ab
:100a9400f07c2000000f78000000eb0010079800a5
:100aa4004000280020079800b0c8200030079800b4
:100ab40020002000400798004e029000be019000e4
:100ac4002e0190009e0090001e00780099fe070001
:100ad4000041eb0081bb2000100020009bfe0700ba
:100ae4000041eb0081bb20002000200097fe07009e
:100af4000080fa00000006003600f800809fbe0067
:100b0400829fbe00849fbe00869fbe000000fa0044
:100b1400004080000000e8000040880001408000a0
:100b2400803e2000808f500004003a0087ff0700b9
:100b34000000eb0000408800ca82a9000000eb001e
:100b44009efe07008460a9000080fa004f03be00e7
:100b54004f02be004f01be004f00be003600f90038
:100b6400004006000000fa008580a9000080fa0019
:100b7400004006003600f800809fbe00829fbe0041
:100b8400849fbe00869fbe000000fa00ca82a800af
:100b9400b8fe070000407800bee8b700bec8bf003a
:100ba4008080fb0072c8bf000000fb00808f5000f3
:100bb4000600320080438000e00f500003003a003a
:100bc4000000eb00804388001f0037008243800050
:100bd400bec8bf00618920008100410080487800c0
:100be4008143800070022000808f500003003a008f
:100bf4000000eb0080438800070037008143800039
:100c040070022000808f500003003c00804380006d
:100c14000000e80080438800bec8bf008080fb005d
:100c240073c8bf000000fb00808f500006003a002c
:100c340010002000604388001000200070438800ea
:100c44000000eb00804388008560a9000080fa0062
:100c54004f03be004f02be004f01be004f00be0056
:100c64003600f900004006000600fa00100798005c
:100c7400210798001e0090000000e80022002000d8
:100c8400800078000e00780099fe0700ae00900006
:100c94000e007800a6fe0700e00f500002003a00a4
:100ca40010002000010037000000eb000080fa0073
:100cb400000006000400fa00000f780011079800f5
:100cc4001e0090009e007800a2fe07000080fa003b
:100cd400000006000000fa00803b28006efe0700ba
:100ce4000080fa00000006000000fa00203c280002
:100cf40069fe07000080fa00000006000000fa0008
:100d0400018c2000403d2800eaff0700c066200057
:100d140040478800a18e2000703d2800e5ff0700b1
:100d240060672000904888000080fa0000000600f8
:100d34000200fa000000eb00000f78000000eb0056
:100d4400000f7800170037009e007800a0022000f2
:100d54000088b90080007800008c200000804000ea
:100d64008000780060892000bfff0700e00f50007a
:100d74000b0032009e007800a00220000088b90019
:100d8400000078008102200080804000008c200058
:100d940000804000100078000000010004003700cb
:100da4001e0fe8001e007800e10f5000e6ff34003b
:100db4000080fa00000006000200fa007cfe070032
:100dc400a5fe0700abfe0700b4fe0700cffe070038
:100dd400c282a900007d200006ff07004087200092
:100de4002dfe0700c5ff07000000eb00000f780090
:100df4000100370000000000101180006200600054
:100e0400e00f5000010032002222a90010118000de
:100e140064006000e00f5000180032000000000081
:100e2400f5ff3700608920001e0040001040780064
:100e34000080fb00201188000000000011118000d8
:100e44000020200000806000e00f5000fbff3a000b
:100e5400700220009e007800808f500005003a0048
:100e64000000eb00604388000000eb00000f7800f6
:100e7400030037001e0fe8000100370000000000e7
:100e840060438000e00f5000e6ff3a0070438000aa
:100e9400e00f5000d7ff3200a5ff070082022000b8
:100ea4008000eb006089200019fe07000000eb00c1
:080eb40070438800d0ff3700f5
:020000040000fa
:100ebc000008000096000000020000000000640022
:100ecc000000000000000000000000000000000016
:100edc000000000000000000000000000000000006
:100eec0000000000000000000000000000000000f6
:100efc0000000000000000000000000000000000e6
:100f0c0000000000000000000000000000000000d5
:100f1c0000000000000000000000000000000000c5
:100f2c0000000000000000000000000000000000b5
:100f3c0000000000000000000000000000000000a5
:100f4c000000000000000000000000000000000095
:100f5c0000000000242542006f61720064207200c2
:100f6c0065616400790a0000004d650073736100cf
:100f7c0067652000726563006569760065640a0028
:100f8c0000000000960800007e0000000000000039
:040f9c000000000051
:00000001FF
