:020000040000fa
:080000000002040000000000f2
:020000040000fa
:10000800c0020000c0020000c0020000c0020000e0
:10001800c0020000c0020000c0020000c0020000d0
:10002800c0020000c0020000c00200003209000047
:10003800c0020000c0020000c0020000c0020000b0
:10004800c0020000c0020000c00200005e090000fb
:1000580056090000c0020000c0020000c0020000f3
:10006800c0020000c0020000c0020000c002000080
:10007800c0020000c0020000c0020000c002000070
:10008800c0020000c0020000c0020000c002000060
:10009800c0020000c0020000c0020000c002000050
:1000a800c0020000c0020000c0020000c002000040
:1000b800c0020000c0020000c0020000c002000030
:1000c800c0020000c0020000c0020000c002000020
:1000d800c0020000c0020000c0020000c002000010
:1000e800c0020000c0020000c0020000c002000000
:1000f800c0020000c0020000c0020000c0020000f0
:10010800c0020000c0020000e0090000c0020000b8
:10011800c0020000c0020000c0020000c0020000cf
:10012800c0020000c0020000c0020000c0020000bf
:10013800c0020000c0020000c0020000c0020000af
:10014800c0020000c0020000c0020000e809000070
:10015800c0020000c0020000c0020000c00200008f
:10016800c0020000c0020000c0020000c00200007f
:10017800c0020000c0020000c0020000c00200006f
:10018800c0020000c0020000c0020000c00200005f
:10019800c0020000c0020000c0020000c00200004f
:1001a800c0020000c0020000c0020000c00200003f
:1001b800c0020000c0020000c0020000c00200002f
:1001c800c0020000c0020000c0020000c00200001f
:1001d800c0020000c0020000c0020000c00200000f
:1001e800c0020000c0020000c0020000c0020000ff
:0801f800c0020000c00200007b
:020000040000fa
:10020800c0020000c0020000c0020000c0020000de
:10021800c0020000c0020000c0020000c0020000ce
:10022800c0020000c0020000c00200003209000045
:10023800c0020000c0020000c0020000c0020000ae
:10024800c0020000c0020000c00200005e090000f9
:1002580056090000c0020000c0020000c0020000f1
:10026800c0020000c0020000c0020000c00200007e
:10027800c0020000c0020000c0020000c00200006e
:10028800c0020000c0020000c0020000c00200005e
:10029800c0020000c0020000c0020000c00200004e
:1002a800c0020000c0020000c0020000c00200003e
:1002b800c0020000c0020000c0020000c00200002e
:1002c800c0020000c0020000c0020000c00200001e
:1002d800c0020000c0020000c0020000c00200000e
:1002e800c0020000c0020000c0020000c0020000fe
:1002f800c0020000c0020000c0020000c0020000ee
:10030800c0020000c0020000e0090000c0020000b6
:10031800c0020000c0020000c0020000c0020000cd
:10032800c0020000c0020000c0020000c0020000bd
:10033800c0020000c0020000c0020000c0020000ad
:10034800c0020000c0020000c0020000e80900006e
:10035800c0020000c0020000c0020000c00200008d
:10036800c0020000c0020000c0020000c00200007d
:10037800c0020000c0020000c0020000c00200006d
:10038800c0020000c0020000c0020000c00200005d
:10039800c0020000c0020000c0020000c00200004d
:1003a800c0020000c0020000c0020000c00200003d
:1003b800c0020000c0020000c0020000c00200002d
:1003c800c0020000c0020000c0020000c00200001d
:1003d800c0020000c0020000c0020000c00200000d
:1003e800c0020000c0020000c0020000c0020000fd
:0803f800c0020000c002000079
:020000040000fa
:100400008fb020000e7f24000e0188000000000045
:100410000c000700a0f320000100200011000700dd
:10042000000020000000e000020032000000020096
:1004300000000000300e0200000000000040da0062
:100440000000fe004440a900a00120000000e000e0
:100450000300320000002000a00188004440a800f2
:100460000000060091018800800078000000eb0089
:1004700015003700e280400032a0b4009101ba00bc
:10048000e280400032a0b4009102ba00e280400055
:1004900032a0b4000002eb00472bde00f507b200eb
:1004a000602ce10004003a000059eb008301e900f0
:1004b000fdff3e00040037006128e100010032002a
:1004c0000082eb00040007001101ba000200e00006
:1004d000e8ff3a00000006003159ba008301e90044
:1004e0000c0032002159ba008301e90008003200f3
:1004f0000400e00003003a00e280400032a0b400b3
:10050000f5ff370011d9ba008301e900faff3a007c
:100510008100e800e180400032a0b4000000060045
:10052000060e040000000000b60c040000000000ed
:10053000d00c040000000000ea0c040000000000e1
:10054000fe0c040000000000120d0400000000007a
:10055000180d0400000000002c0d04000000000035
:10056000d00d040000000000d60d040000000000c3
:10057000de0d040000000000f20d04000000000089
:100580000040da000000fe00200e8800310e8800d6
:10059000430e8800540e8800020e880000000600fa
:1005a00061016100530e80000300a100828171008f
:1005b000530e88000000e90000004000621d20008a
:1005c00001317800000006008b40a900670160003f
:1005d0004811dd0003068000f18f2f00818061004b
:1005e000828070000106880068006000c300de00a1
:1005f000e1806000ca08dd00d004800000a0a100f6
:1006000001007000d0048800000006008d60a90081
:10061000670160004c11dd0043068000f1ff2800f7
:10062000818061008280700041068800680060005f
:10063000c300de00e1806000cb08dd00e004800044
:1006400000b0a10001007000e00488000000060076
:100650008460a900670160004c11dd002305800063
:10066000f1ff2800818061008280700021058800f0
:1006700068006000a10480000130a100808070004b
:10068000a1048800000006000021ef001108880086
:10069000200888000000060000088800000006000e
:1006a00021e2a9009560a9009580a9008560a900b4
:1006b0008580a900000006008560a9008580a9004a
:1006c000670160004c11dd0043058000f1ff280048
:1006d00081806100828070004105880000017800ff
:1006e0000207b2004411de005305800081ff2f0095
:1006f000818061008280700051058800680160007f
:100700004311de00610161004b11dd00a104800096
:1007100001b0a10082807000a10488000008b2002e
:100720004700de00610060004c00dd00a104800095
:1007300001c0a10080807000a104880000000600b4
:100740004211880000118800111188000000060085
:100750000011800066006000e60f500002003a00c1
:10076000301180000000060030118000f00fb20050
:100770000000060001118000e6806000e68f500056
:100780000e003a00040037002322ab00feff3a00bf
:10079000221188000080e80010017800e00f51006d
:1007a000f9ff3a00000006002322ab00feff3a00ea
:1007b0008100fb00211188000000e80090407800d3
:1007c000e0cf5000f8ff3a000000060002c2b3007c
:1007d000010037000000e8009040780082cf500010
:1007e000fcff3200e9cf5000faff3200d2c2b30062
:1007f00082cf500003003a000000e80012c0b300ae
:10080000050037000041eb00b3c2b30083cf5000b6
:1008100001003a000000e8008000eb00050037000e
:100820006a0ab90001fd2f008480400083804000e7
:100830000000e8009001fb0004fd2f0003024200cd
:10084000e90f5200f6ff3600e04f51000100320080
:100850008100ea00010078000000060080017800b5
:1008600002003700b1597800040178000202e90063
:10087000e00f5100fbff3a00000006008001780005
:100880003141780082597800e04f5100fcff3a0076
:10089000000006000d00370010417800e04f5100c5
:1008a00002003200914f5100050032000281fb002e
:1008b000914078000180fb0000005100000006001c
:1008c0000000e8008100e800030178008201e900ef
:1008d000e00f5100f0ff3a0002007800000006002f
:020000040000fa
:1008e00030300000003000003100000030320000e5
:1008f0000030000033000000303400000030000001
:100900003500000030360000003e00003e000000d0
:040910000a000000d9
:020000040000fa
:100914000000fa000000eb00403a8800e0012000eb
:10092400303a8800213a800000fe2f0000806000e9
:10093400203a8800213a8000f0f32f000080600004
:10094400203a88003200200080072000a1092000fe
:100954003374200080497800814978008249780006
:100964001200200060042000710520002374200080
:1009740080497800814978008249780000000000ad
:10098400113a8000000027008080600000002300ee
:10099400808f5000faff3a0000000000113a8000f6
:1009a4000002200000806000e00f5000fbff3200d6
:1009b4000080fa00000006000000fa00c082a900ce
:1009c400c882a900c282a900ca82a9000080fa00d4
:1009d400000006000000fa0090ff2f001bff070034
:1009e4000000eb002bff070001c4290090f82f0042
:1009f40024ff07000080fa00000006000000fa004f
:100a040021742000520420007305200082487800dd
:100a14008348780042c7a9002135800000fe2f00da
:100a2400008060000010a00020358800113680008e
:100a3400f00f2e00808060000030200000807000e5
:100a440010368800e134800000fe2f000080600032
:100a5400a000b300e0348800e1348000f00f2e00e1
:100a64008080600000b0200000807000e0348800c6
:100a74000135800000fe2f00008060006000b3009c
:100a84000035880001358000f00f2e008080600062
:100a94000050200000807000003588002174200080
:100aa40052042000730520008248780083487800af
:100ab40042c7a8000080eb00601988000080fa009b
:100ac400000006000400fa00f4fe0700a0f22f0064
:100ad400f8fe070080482c00000f7800d055210054
:100ae400100798008560a900520520009e00900020
:100af4001e00780011ff07008560a9000080fa003d
:100b0400000006000000fa0010168000700060006b
:100b1400e00f500002003200c282a9000500370035
:100b24001016800070006000e00f500001003a00d1
:100b3400c282a8000080fa00000006000000fa004b
:100b44005016800070006000e00f50000200320078
:100b5400ca82a900050037005016800070006000aa
:100b6400e00f500001003a00ca82a8000080fa0099
:100b7400000006000400fa00100798000000eb00d3
:100b8400000f7800010037001e0fe8009e0090005f
:100b9400900320000088b900000078009e0f5000e8
:100ba400f9ff3c000080fa00000006000400fa008f
:100bb400100798000000eb00000f780003003700d6
:100bc40040062000ebff07001e0fe8001e00900007
:100bd4009e007800808f5000f9ff35000080fa00f5
:100be400000006000000fa00005280000041eb0003
:100bf400800078001000200068fe07000080fa00e2
:100c0400000006000000fa00105280000041eb00d2
:100c1400800078002000200060fe07000080fa00b9
:100c2400000006000200fa00000f78001e007800a1
:100c34000041eb00800078001000200057fe070000
:100c44000080fa00000006000200fa00000f78009d
:100c54001e0078000041eb00800078002000200096
:100c64004efe07000080fa00000006000a00fa00a9
:100c7400c802a900c822a900c882a900c922a900e3
:100c8400c982a900c9a2a900c9c2a900c9e2a900d0
:100c9400cdc2a900cd82a900f07c2000000f78000d
:100ca4000000eb001007980020002800200798009f
:100cb400b0f820003007980020002000400798007a
:100cc4004e029000be0190002e0190009e00900004
:100cd4001e0078002bfe0700005280000041eb004c
:100ce40080007800100020002cfe070010528000c5
:100cf4000041eb00800078002000200027fe070060
:100d04000080fa00000006000400fa0010079800b2
:100d14000000eb00000f78001e009000100090000f
:100d24008000e8001e009000110098001e00900052
:100d34009000900080de2f00808f500003003a0066
:100d44001e0090008000eb00110098000000eb00f2
:100d5400000f7800450037001e00900090009000be
:100d64001e009000100178001e0078000000400072
:100d740000004100100078001000780000017800a5
:100d8400110009008280d8008000fd00e00f5000af
:100d940035003a001e009000900078001e00780094
:100da4000000400000804000100078001000900017
:100db400e00f50002c0032001e00900090007800dc
:100dc4001e00780000004000008040001000780001
:100dd40040009000e00f50001b0032001e00900005
:100de400900078001e007800000040000080400061
:100df4001000780020009000000001001e00900008
:100e0400900078001e007800000040000080400040
:100e14001000780010009000e10f40001200320032
:100e24001e009000900078001e0078000000400032
:100e34000080400010007800900090008100e900dc
:100e440011009800080037001e0090009000780000
:100e54001e00780000004000008040001000780070
:100e640011002000310098001e0fe8001e009000c1
:100e7400200090009e0f5000b7ff3c000080fa0055
:100e8400000006000400fa00100798000000eb00c0
:100e9400000f78000000eb00000f780023003700fb
:100ea4001e009000900078001e00780000004000b2
:100eb400008040001000780010009000e00f500007
:100ec400190032001e009000900078001e00780087
:100ed40000004000008040001000780040009000b6
:100ee400e00f500010003a001e00900090007800bf
:100ef4001e007800000040000080400010007800d0
:100f04008000eb00310098001e00900090007800f3
:100f14001e007800000040000080400010007800af
:100f240020009000000001001e0fe8001e00900049
:100f3400200090009e0f5000d9ff3c000080fa0072
:100f4400000006000a00fa00000f7800110798005c
:100f54002207980033079800440798001e00780081
:100f64009e009000210098001e0078002e01900041
:100f7400120098001e007800be0090004100980006
:100f84001e0078004e019000020878001e007800d0
:100f9400c00090001e007800100078000001780066
:100fa400110009008200d800800078001e0078003b
:100fb400510098001e007800a00090001e007800e8
:100fc400100078000088b900800078001e007800c6
:100fd400310098001e0078008000eb005108980052
:100fe4001e00780081382100610098001e007800fe
:100ff4008000eb00310898001e0078008000eb00b0
:10100400410898001e0078008000eb000108980059
:101014001e0078008000eb00710098001e0078002c
:101024008000eb00110898001e0078008000eb009f
:10103400210898000080fa00000006000400fa006d
:10104400000f7800110798001e0078009e009000a1
:10105400510898000080fa00000006000400fa001d
:10106400000f7800110798001e0078009e00900081
:10107400610898000080fa00000006000200fa00ef
:10108400000f78001e007800e00890001e00780031
:1010940050089000808050001e00780031089800ad
:1010a4001e007800900090001e0078003008900028
:1010b4000088b900800078001e0078007100980054
:1010c4001e007800000990001e007800b000900017
:1010d4001e007800300890000088b90000007800f5
:1010e400800041001e007800010898001e0078006e
:1010f400000890009e007800e1009000810f5000ed
:1011040001003400010078009e00780080089800f7
:101114001e007800000890009e007800e100900016
:101124008100ea00810f500001003d0001007800b9
:101134009e007800800898001e007800b008900097
:101144001e00780040089000808050001e00780047
:10115400500090000088b900800078001e007800dc
:10116400110898001e007800b00890001e00780056
:10117400410898001e007800f00090001e007800de
:1011840000089000808040001e0078001008900045
:10119400808040001e007800210898000080fa003a
:1011a400000006000a00fa00000f780011079800fa
:1011b4002207980033079800440798001e0078001f
:1011c4009e009000010878001e007800ae00900098
:1011d400110098001e007800be00900021009800c5
:1011e4001e00780020009000ce00900001087800d6
:1011f4001e007800200090008080eb001100980011
:101204001e0078002000900061e02000210098007a
:101214001e0078002000900011002000410098007a
:101224001e007800200090008000eb003100980040
:101234000080fa00000006000200fa00000f7800a7
:101244001e007800100078008cff07001e00780054
:101254001000900089ff07000080fa0000000600db
:101264003600f800809fbe00829fbe00849fbe00af
:10127400869fbe000000fa0060852000a2fe0700e1
:101284000000eb0003fd07008460a9000080fa0061
:101294004f03be004f02be004f01be004f00be0010
:1012a4003600f900004006000000fa008580a9001d
:1012b4000080fa00004006003600f800809fbe005f
:1012c400829fbe00849fbe00869fbe000000fa007d
:1012d400ca82a8001dfd07000040780054e8b7004a
:1012e40054c8bf008080fb00b8cabf000000fb00e8
:1012f400808f500006003200b0558000e00f50008f
:1013040003003a000000eb00b055880023003700ca
:10131400b255800054c8bf00018020008100410004
:1013240080487800b155800070022000808f500002
:1013340003003a000000eb00b055880007003700b6
:10134400b155800070022000808f500003003c00e3
:10135400b05580000000e800b055880054c8bf00b4
:101364008080fb00b9cabf000000fb00808f5000e2
:101374000a003a00820220000180200080822000be
:1013840035fd070010002000905588001000200053
:10139400a05588000000eb00b05588008560a900c6
:1013a4000080fa004f03be004f02be004f01be0092
:1013b4004f00be003600f900004006000000fa00ad
:1013c4008b40a9000080fa00004006000000fa00eb
:1013d4008d60a9000080fa00004006000600fa00b3
:1013e400000f780011079800220798001e0078006b
:1013f4009e009000110098001e0078008000eb0011
:10140400210098001e007800ae00900001087800ca
:101414000080fa00000006000400fa00000f7800c3
:10142400110798001e009000e10f500009003a00d7
:101434001e007800100090009e007800910090003b
:10144400110178009e0078009100780081007100fd
:10145400010878001e009000e10f40000a003a00e5
:101464001e007800100090009e007800910090000b
:10147400110178009e007800910078008180ea00d4
:1014840081006100010878000080fa000000060075
:101494001000fa005007980061079800720798003e
:1014a400c802a900c822a900c882a900c922a900ab
:1014b400c982a900c9a2a900c9c2a900c9e2a90098
:1014c400f07c2000000f78000000eb00100798006b
:1014d4002000280020079800b0f82000300798006a
:1014e40020002000400798004e029000be019000aa
:1014f4002e0190009e0090001e00780021fc070041
:101504005e009000ee009000010878005e009000fc
:10151400fe009000110098005e009000100078001a
:101524008000eb00210098005e0090001000900005
:101534008000eb00210098005e009000100078000d
:101544008000eb00310098005e00900010009000d5
:101554008000eb00310098005e00900010007800dd
:101564008000eb00acff07005e00900010009000cc
:101574008000eb00a8ff07005e00900010007800d8
:10158400200090000041eb00800078001000200053
:1015940002fc07005e009000100090002000900004
:1015a4000041eb008000780020002000fbfb0700d6
:1015b4000080fa00000006000600fa00000f780020
:1015c40011079800220798001e0078001000780088
:1015d4009e009000210098001e0078001000780002
:1015e400ae0090008cff07001e0078001000780009
:1015f400200090000041eb008000780010002000e3
:10160400e6fb07000080fa00000006000600fa006e
:10161400000f780011079800220798001e00780038
:10162400100090009e009000210098001e00780099
:1016340010009000ae00900077ff07001e007800b5
:1016440010009000200090000041eb008000780022
:1016540020002000d1fb07000080fa0000000600f3
:101664000a00fa00000f780011079800220798007a
:1016740033079800440798001e007800ae009000dd
:10168400110098002e0090001100200041009800e5
:101694002e0090008000eb00310098009e00900026
:1016a4001e007800010878001e00780010009000e9
:1016b400be009000010878001e0078001000900021
:1016c4008080eb00110098001e007800100090004c
:1016d400ce009000210098000080fa00000006006f
:1016e4000600fa00000f78001107980022079800fe
:1016f4001e0078009e009000010878001e0078000b
:10170400ae00900011009800010f8000f08f2f00b0
:10171400808060000050200000807000000f88006e
:10172400e0e1a800e1a1a800e041a900e0c1a9000e
:10173400e041a900110f8000f0f82f0080806000c4
:101744000006200000807000100f8800e2e1a8006d
:101754000080eb00300f88000000eb00200f8800b1
:1017640090ff2f0097fb0700810f8000f08f2f0060
:10177400808060000050200000807000800f88008e
:10178400f0e1a800f1a1a800f041a900f0c1a9006e
:10179400f041a900910f8000f0f82f0080806000d4
:1017a4000006200000807000900f8800f2e1a8007d
:1017b4000080eb00b00f88000000eb00a00f880051
:1017c40090ff2f0090fb07000080fa000000060045
:1017d4000c00fa00000f7800110798002207980007
:1017e4003307980044079800550798001e007800b6
:1017f4009e009000010878001e007800ae00900062
:10180400110098001e007800100078008000eb00a2
:10181400010878001e007800100090008000eb00a2
:10182400010878001e007800be0090002100980096
:101834001e007800ce009000310098001e00780051
:10184400de009000410098000080fa0000000600cd
:101854000600fa0010079800210798001e00900067
:1018640010007800ae009000010878002e0090006f
:10187400e00f500002003400100020000100370087
:101884000080eb00000f7800ae0090001e0078008e
:101894000088b900800078001e00900020009000ad
:1018a4001e01780044ff07000080fa0000000600d3
:1018b4000600fa0010079800210798001e00900007
:1018c40010009000ae009000010878002e009000f7
:1018d400e00f500002003400100020000100370027
:1018e4000080eb00000f7800ae0090001e0078002e
:1018f4000088b900800078001e009000200090004d
:101904001e01780041ff07000080fa000000060075
:101914000400fa00000f7800110798009e00900060
:101924001e00780022002000d9fb0700e00f5000c1
:1019340002003a0010002000010037000000eb0014
:101944000080fa00000006000400fa00000f78008e
:10195400110798001e0090009e007800c6fb070047
:101964000080fa00000006000200fa0090428000a5
:101974006300400094fb0700000f7800504680008d
:101984009e00780061089800604680009e00780000
:10199400610898000080fa00000006000200fa00c6
:1019a400904280006300400087fb0700000f78002e
:1019b400504680009e00ea0061089800604680005e
:1019c4009e00ea00610898000080fa00000006000a
:1019d4000200fa0090428000630040007afb070096
:1019e400000f7800504680009e007800610898003f
:1019f4000080fa00000006000200fa009042800015
:101a04006300400070fb0700000f78005046800020
:101a14009e00ea00610898000080fa0000000600b9
:101a24000000fa000080fa00000006000200fa003c
:101a3400904280006300400063fb0700000f7800c1
:101a4400604680009e007800610898000080fa00db
:101a5400000006000200fa0090428000630040008b
:101a640059fb0700000f7800604680009e00ea00e2
:101a7400610898000080fa00000006000000fa00e7
:101a8400a191200000472800afff070060cb200091
:101a9400104a88004194200030472800aaff07001c
:101aa40000cd2000604b8800e196200060472800ac
:101ab400a5ff0700a0ce2000b04c8800819920002b
:101ac40090472800a0ff0700e0cf2000004e8800c8
:101ad400219c2000c04728009bff070020d1200044
:101ae400504f8800c19e2000f047280096ff070051
:101af40080d12000a050880061a120002048280047
:101b040091ff0700c0d22000f05188000080fa0045
:101b1400000006000200fa000000eb00000f78004d
:101b24000000eb00000f7800170037009e007800db
:101b3400a00220000088b90080007800a091200055
:101b440080804000904280000000e80070ff0700a1
:101b5400e00f50000b0032009e007800a00220002d
:101b64000088b900000078008102200080804000d5
:101b7400a0912000008040001000780000000100c7
:101b8400040037001e0fe8001e007800e60f500026
:101b9400e6ff34000080fa00000006000000fa00ae
:101ba4000080fa00000006000000fa00d5fb0700e0
:101bb4000080fa00000006000000fa005046800091
:101bc4000148800091007800510898000048800086
:101bd4008000eb00010878000080fa000000060095
:101be4000a00fa00604680002148800091007800d5
:101bf40051089800204880008000eb00010878001c
:101c04000080fa00000006000000fa00a08c20000a
:101c140089fd070050468000e0089000504680008f
:101c2400200890000080400080007800009120008f
:101c340007ff070060468000e008900060468000cf
:101c4400200890000080400080007800009120006f
:101c540017ff07000080fa00000006000c00fa00dd
:101c640020002000000f780029fb070052fb07002a
:101c740058fb070061fb070092fb0700c282a90022
:101c8400e0ab2000bafa07007cff0700401f2000e9
:101c9400e04288000080eb00f042880000dd200074
:101ca400004388000000eb00204388000000eb00a4
:101cb40010438800800c2000304388000080eb0033
:101cc4004043880060dd2000504388000000eb00a2
:101cd400704388000000eb00604388001e00780019
:101ce400e4dd20008001780002872000411e2000ee
:101cf400009020005afe07001e00780024df200018
:101d040080017800a2872000411f2000409020001d
:101d140053fe070042902000019020008090200094
:101d24006ffe070002002400c12c2000c08e20009a
:101d3400aafd070002002100c12c2000408f2000d2
:101d4400a6fd0700428f2000c18e2000c08f200016
:101d5400cffd07001e02780013002000a20020001f
:101d640051002000e088200076fc07001e02780065
:101d740013002000a200200051002000c08a20008f
:101d840070fc07001e02780043882000c28a2000ed
:101d9400e1882000a08c200002fd0700a58c200013
:101da40084902000c38f2000e2902000c190200086
:101db4000091200086fe07000000eb00d04288005e
:101dc400c085200010079800608620002007980036
:101dd4000087200030079800a08720004007980063
:101de40040882000500798000e80e800b042880028
:101df40050002000d042880001003700000000009d
:101e0400608520001ffc0700101180006200600044
:101e1400e00f5000010032002222a90010118000be
:101e240064006000e00f5000020032000000000077
:101e3400f3ff3700a0558000e00f5000efff3200a1
:101e440080822000904288005048280048fa070009
:101e54008082200046fa07008048280044fa0700e0
:101e64002cff07000000eb00a0558800e4ff3700ba
:020000040000fa
:101e7400400a0000c800000002000000000000004a
:101e840000000000000064000000000000000000ea
:101e9400000000000000000000000000000000003e
:101ea400000000000000000000000000000000002e
:101eb400000000000000000000000000000000001e
:101ec400000000000000000000000000000000000e
:101ed40000000000000000000000000000000000fe
:101ee40000000000000000000000000000000000ee
:101ef40000000000000000000000000000000000de
:101f040000000000000000000000000000000000cd
:101f14000000000000000000000000002425000074
:101f240000000000426f610072642000726561006d
:101f340064790a0000004d006573730061676500f1
:101f44002072650063656900766564000a0000001c
:101f5400000000000000000000000000000000007d
:101f6400000000000000000000000000000000006d
:101f7400000000000000000000000000000000005d
:101f84000000000000000000000800004002000003
:081f9400000000000000000045
:020000040000fa
:0200000401f009
:04000c00fbff0000f6
:020000040000fa
:0200000401f009
:040010007dff000070
:020000040000fa
:0200000401f009
:040014007fff00006a
:00000001FF
