:020000040000fa
:080000000002040000000000f2
:020000040000fa
:10000800bc020000bc020000bc020000bc020000f0
:10001800bc020000bc020000bc020000bc020000e0
:10002800bc020000bc020000bc020000bc230000af
:10003800bc020000bc020000bc020000bc020000c0
:10004800bc020000bc020000bc020000ea23000061
:10005800e2230000bc020000bc020000bc02000059
:10006800bc020000bc020000bc020000bc02000090
:10007800bc020000bc020000bc020000bc02000080
:10008800bc020000bc020000bc020000bc02000070
:10009800bc020000bc020000bc020000bc02000060
:1000a800bc020000bc020000bc020000bc02000050
:1000b800bc020000bc020000bc020000bc02000040
:1000c800bc020000bc020000bc020000bc02000030
:1000d800bc020000bc020000bc020000bc02000020
:1000e800bc020000bc020000bc020000bc02000010
:1000f800bc020000bc020000bc020000bc02000000
:10010800bc020000bc02000064240000bc02000025
:10011800bc020000bc020000bc020000bc020000df
:10012800bc020000bc020000bc020000bc020000cf
:10013800bc020000bc020000bc020000bc020000bf
:10014800bc020000bc020000bc0200006c240000dd
:10015800bc020000bc020000bc020000bc0200009f
:10016800bc020000bc020000bc020000bc0200008f
:10017800bc020000bc020000bc020000bc0200007f
:10018800bc020000bc020000bc020000bc0200006f
:10019800bc020000bc020000bc020000bc0200005f
:1001a800bc020000bc020000bc020000bc0200004f
:1001b800bc020000bc020000bc020000bc0200003f
:1001c800bc020000bc020000bc020000bc0200002f
:1001d800bc020000bc020000bc020000bc0200001f
:1001e800bc020000bc020000bc020000bc0200000f
:0801f800bc020000bc02000083
:020000040000fa
:10020800bc020000bc020000bc020000bc020000ee
:10021800bc020000bc020000bc020000bc020000de
:10022800bc020000bc020000bc020000bc230000ad
:10023800bc020000bc020000bc020000bc020000be
:10024800bc020000bc020000bc020000ea2300005f
:10025800e2230000bc020000bc020000bc02000057
:10026800bc020000bc020000bc020000bc0200008e
:10027800bc020000bc020000bc020000bc0200007e
:10028800bc020000bc020000bc020000bc0200006e
:10029800bc020000bc020000bc020000bc0200005e
:1002a800bc020000bc020000bc020000bc0200004e
:1002b800bc020000bc020000bc020000bc0200003e
:1002c800bc020000bc020000bc020000bc0200002e
:1002d800bc020000bc020000bc020000bc0200001e
:1002e800bc020000bc020000bc020000bc0200000e
:1002f800bc020000bc020000bc020000bc020000fe
:10030800bc020000bc02000064240000bc02000023
:10031800bc020000bc020000bc020000bc020000dd
:10032800bc020000bc020000bc020000bc020000cd
:10033800bc020000bc020000bc020000bc020000bd
:10034800bc020000bc020000bc0200006c240000db
:10035800bc020000bc020000bc020000bc0200009d
:10036800bc020000bc020000bc020000bc0200008d
:10037800bc020000bc020000bc020000bc0200007d
:10038800bc020000bc020000bc020000bc0200006d
:10039800bc020000bc020000bc020000bc0200005d
:1003a800bc020000bc020000bc020000bc0200004d
:1003b800bc020000bc020000bc020000bc0200003d
:1003c800bc020000bc020000bc020000bc0200002d
:1003d800bc020000bc020000bc020000bc0200001d
:1003e800bc020000bc020000bc020000bc0200000d
:0803f800bc020000bc02000081
:020000040000fa
:100400000fd120000e7f24000e01880000000000a4
:100410000c000700209522000100200011000700b9
:10042000000020000000e000020032000000020096
:100430000000000028280200000000000040da0050
:100440000000fe004440a900400620000000e0003b
:100450000300320000002000a00188004440a800f2
:100460000000060091018800800078000000eb0089
:1004700015003700e280400032a0b4009101ba00bc
:10048000e280400032a0b4009102ba00e280400055
:1004900032a0b4000002eb00472bde00f507b200eb
:1004a000602ce10004003a000059eb008301e900f0
:1004b000fdff3e00040037006128e100010032002a
:1004c0000082eb00040007001101ba000200e00006
:1004d000e8ff3a00000006003159ba008301e90044
:1004e0000c0032002159ba008301e90008003200f3
:1004f0000400e00003003a00e280400032a0b400b3
:10050000f5ff370011d9ba008301e900faff3a007c
:100510008100e800e180400032a0b4000000060045
:100520007c270400000000000027040000000000f9
:10053000a024040000000000be240400000000000d
:10054000dc24040000000000f62404000000000089
:100550001025040000000000322504000000000007
:100560004c250400000000001628040000000000d4
:1005700020280400000000000040da000000fe0017
:10058000200e8800310e8800430e8800540e88002b
:10059000020e88000000060061016100530e800019
:1005a0000300a10082817100530e88000000e90061
:1005b00000004000621d20000131780000000600ac
:1005c0008b40a900670160004811dd000306800030
:1005d000f18f2f0081806100828070000106880009
:1005e00068006000c300de00e1806000ca08dd0032
:1005f000d004800000a0a10001007000d004880099
:10060000000006008d60a900670160004c11dd004c
:1006100043068000f1ff2800818061008280700025
:100620004106880068006000c300de00e1806000d1
:10063000cb08dd00e004800000b0a10001007000e4
:10064000e0048800000006008460a90067016000e3
:100650004c11dd0023058000f1ff2800818061003e
:10066000828070002105880068006000a10480007d
:100670000130a10080807000a10488000000060005
:100680000021ef0011088800200888000000060003
:10069000000888000000060021e2a9009560a9007a
:1006a0009580a9008560a9008580a900000006004a
:1006b0008560a9008580a900670160004c11dd00fc
:1006c00043058000f1ff2800818061008280700076
:1006d00041058800000178000207b2004411de00e5
:1006e0005305800081ff2f008180610082807000af
:1006f00051058800680160004311de00610161005e
:100700004b11dd00a104800001b0a10082807000c7
:10071000a10488000008b2004700de00610060000c
:100720004c00dd00a104800001c0a10080807000a9
:10073000a104880000000600421188000011880012
:1007400011118800000006000011800066006000a2
:10075000e60f500002003a00301180000000060051
:1007600030118000f00fb20000000600011180007f
:10077000e6806000e68f50000e003a00040037006b
:100780002322ab00feff3a00221188000080e8001f
:1007900010017800e00f5100f9ff3a000000060058
:1007a0002322ab00feff3a008100fb0021118800ec
:1007b0000000e80090407800e0cf5000f8ff3a00d9
:1007c0000000060003f0a200889fbe008a9fbe00c2
:1007d0008c1f7800c4000700cb0033006450e10098
:1007e0004f0032006420e1005200320003826c00ae
:1007f00007003b000905d0000306d000820f54001b
:100800000c065d0002003900020032008901780008
:10081000030678008582550004003d000003fd00ba
:100820008103fd008502ea008b854200840f72007f
:1008300002003b0060001000e08018006011b8006a
:100840000005eb007a28e1000a0039000600780074
:10085000c75ddd00f707b200878075002d00370007
:10086000828171000a017800610560008180d100f9
:100870000080d3008502e900f9ff3b000604400038
:100880008784480002003b0060041400e0841c00e0
:100890000988a300070032008a81710082817100fb
:1008a000610164008904d1000884d3008b05e8004d
:1008b000170037000978a30013003a000b00e0008e
:1008c000130034008b05e9000804440089844c00bf
:1008d0000a4474000978a3000d003a000b00e00000
:1008e000070034008b05e9000804440089844c00ab
:1008f00001003a000b0020000978a300f7ff320046
:100900000001eb0002003700828171000a017800cb
:100910004f0007000cf0a70001f0a0008300370093
:100920006420e10002003a00838f6c0083003300f2
:100930000801be000200be007c003700889fbe0098
:100940008a9fbe008c1f7800670007006e0033008e
:1009500003866c006450e1002e0032006420e10048
:10096000330032006150e1002f0032006120e100cd
:100970003100320085855500eb07b00009002000ea
:1009800008042000050037000804440089844c0056
:100990000a0031000603430087834b000001530027
:1009a00081815b00f8ff33000203be000800a00055
:1009b0000804440089844c00f6ff3900c639dd0084
:1009c0008301730001003200130020008904d1006c
:1009d0000884d3000998a300050032000800a7008e
:1009e0000300a0008904d1000884d3008b05e8002f
:1009f0008904d1000884d3000001eb000281d200f9
:100a00001300070001f0a1000cf0a70001f0a00006
:100a1000460037006420e100480032000801be00b3
:100a20000200be00f7ff37006120e1004300320002
:100a30006000b800f3ff37000000200001f8270035
:100a4000f0ff37004f89de00820178007200370026
:100a500081002000618055000b003d000b0020004c
:100a600061fe2f000100e1001d0034008281710051
:100a7000610164008904d1000884d3000000e8000b
:100a8000faff3a007100200061006400030070006a
:100a9000020060000900320061044400e0844c0060
:100aa0000988a500050032008b05e8006808e10010
:100ab00002003a008904d1000884d300f20f20001c
:100ac0000258e10005003d00c75ddd00f907b200f6
:100ad0008980750008007800000006000bf82700e8
:100ae0008b007800000005000004be0089000700ac
:100af0000003be000405be000200be008500070022
:100b0000844f7500000006000200be006450e10042
:100b1000050036006420e100020036000968a300e9
:100b200001003a000800be000160a0004f067800f6
:100b30004f05be004f04be0000000600f0ff2f006e
:100b4000f1ff2700f9ff3700889fbe008a9fbe0093
:100b50008c1f7800e4ff0700ebff330003866c0076
:100b60006450e100240032006420e10027003200dc
:100b70006150e100220032006120e10021003200da
:100b80008b854200eb07b1000134b800003ab80091
:100b90000804420089844a00013ab8000030b800d5
:100ba0008880400009014a00040033000000400032
:100bb00081804800020149008b05e900c909dd0078
:100bc000830170000100320013002000c814de0011
:100bd0004814dd004709de001200b200c808de003c
:100be000088470009aff070001f0a1000cf0a70034
:100bf00001f0a000cdff37006120e100cfff3200ff
:100c00000801be000200be00f7ff37006150e1009e
:100c1000fcff3a00c9ff3700881f78000304780002
:100c20000300e00007003d0060001000e0801800b5
:100c300060011900e081190002003b0001f02d0065
:100c4000030037000400070008f0a70001f0a0002f
:100c50004f04780000000600889fbe008a9fbe00f7
:100c600000827000040271000482710026003200cc
:100c70000004be000200be006011b8006b09200035
:100c8000950220000182cf000a0039000541b10021
:100c90000082cf00070039000541b1000982cf0072
:100ca000040039000541b1000882cf00010039007d
:100cb0000541b10005425200120032000a003b001b
:100cc00082817100610164008100d1000080d30045
:100cd0008984d3000884d3008b05e8000442e8002f
:100ce000f7ff3a00070037000804440089844c00ed
:100cf00000004800818048008b05e9000442e900bb
:100d0000f9ff3a0052ff07004f05be004f04be0036
:100d100000000600c70ade00f107b200f50fb200be
:100d200008003200e1cf4200020032000170a00052
:100d300024000500810f7000010032000408050046
:100d400044000500810f700002003a001400050005
:100d50008502e9000000400081c04800fcff3b0024
:100d60000170a0002400050002c2b300010037009a
:100d70000000e8009040780082cf5000fcff320075
:100d8000e9cf5000faff3200d2c2b30082cf500048
:100d900003003a000000e80012c0b300050037006d
:100da0000041eb00b3c2b30083cf500001003a0012
:100db0000000e8008000eb00050037006a0ab90077
:100dc00001fd2f0084804000838040000000e80087
:100dd0009001fb0004fd2f0003024200e90f5200c6
:100de000f6ff3600e04f5100010032008100ea00ba
:100df0000100780000000600800178000200370042
:100e000081597800040178000202e900e00f5100e6
:100e1000fbff3a00000006008001780031417800b5
:100e200082597800e04f5100fcff3a0000000600b4
:100e30000d00370010417800e04f510002003200f1
:100e4000914f5100050032000281fb009140780073
:100e50000180fb0000005100000006000000e800d7
:100e60008100e800030178008201e900e00f5100f1
:100e7000f0ff3a0002007800000006000c00fa00c3
:100e8000889fbe0000047800f0ff2700d0bf9f00bd
:100e90008004eb0099bf9f0088bf9f00a8bf9f0000
:100ea000200c2000b0bf9f0078815700cfb0970082
:100eb00070805700ab0007000fb897000948780012
:100ec0008fb89700088050004f04be000080fa00e1
:100ed00000000600889fbe008a9fbe000084fb00c1
:100ee000d1c6b300814f5000210036004b062000d0
:100ef000110009000b84d8008105780072004000c1
:100f00004300dd0089b62000008044006022b80064
:100f10000600200007fe23005001be004000be0076
:100f20007e090700aa00200000027800811f7800d7
:100f3000110009008a85d8000002fd00cf0078006a
:100f4000690242004322dd00048244005403be00d3
:100f50004402be0071090700809fbe001100090015
:100f60000a84d800010478004f00be00100037004a
:100f7000ea4f500013003600a900200011000900bc
:100f80000984d80001047800690040004300dd00b6
:100f900089b62000008044006022b80006002000ce
:100fa00007fe23005001be004000be005b090700a1
:100fb0004344dd00888444003902be002903be009a
:100fc000080037004344dd0080b6200008044000dc
:100fd0006022b8000600200007fe23003800be0093
:100fe0002801be004d0907004f05be004f04be009a
:100ff00000000600889fbe008a9fbe00d1c6b300d5
:10100000e04f500025003d000040ea000004fb00d6
:10101000814f50000b0034004206200011000900ef
:101020000204d80001007800a90020001100090086
:101030000900d800690040004300dd008ab62000a6
:1010400023003700ea4f500011003400a2002000b6
:10105000110009000204d800010478008000780023
:10106000e9804000c308dd0080b620008100400018
:101070004344dd00080040003002be002003be00f3
:101080005101be004100be002409070032003700b4
:101090004344dd0080b620002c0037000004fb0034
:1010a000814f50001c00340042062000110009004e
:1010b0000204d80001007800a900200011000900f6
:1010c0000900d800690040004300dd008aab200021
:1010d000000045003002be002003be008b09200046
:1010e0008a8545003b00be002b01be000b090700ae
:1010f000809fbe00110009000904d8000104780097
:101100004f00be004344dd00080545003a02be0022
:101110002a03be00dcff3700ea4f5000090034000c
:10112000a2002000110009000204d8000104780088
:1011300080007800e9804000c308dd0080ab20001b
:10114000caff37004344dd0080ab200008044000a4
:101150003800be002801be004f05be004f04be008f
:10116000000006002f05b000889fbe008a9fbe00c9
:101170008c9fbe008e1f780000037800f1a79f00af
:1011800082af9f000000eb00f0b79f0006077800d9
:1011900077063700ffa097008100e800f1a79f00c5
:1011a00052c2b30082cf520006003a000004eb00a6
:1011b00006c3b30003c2b300b1c2b3007fa097005f
:1011c000120037003e0190000204b2000400320019
:1011d0009e01780085497800030fe800070037007a
:1011e0000501fb008e007800020078006c06070005
:1011f00000017800e10f41005d0632007fb19700e9
:101200000201e800f2b79f005906370090427800cb
:10121000d4c2b30084cf52000b0032000001e800ba
:1012200084cf520005003c0083cf520009003200f9
:1012300081cf52000e003a000800370086cf5200de
:101240000b003a00070037000830a0000000e8005b
:10125000eeff37000800a000030037000810a000d0
:10126000010037000820a00002007800e7ff3700e7
:10127000f0a79f00e2016400010032000800a10015
:10128000e8016400010032000820a1008501fb0094
:101290000303b100e98f51000d003e000000200063
:1012a0007fa197006a00b9000003b1009200fb0023
:1012b00001004000d200fb000103b100e98f5000a3
:1012c000f8ff360090b79f00f2a79f000c00370090
:1012d0000003eb0096b79f00a3c2b30083cf520078
:1012e00007003a008fab9700c704780087af9f00d4
:1012f00099b79f007fa597000a05e800faa79f000d
:10130000e3c2b300ffa597009bcf11001f003a0076
:1013100008e0a000e8b79f00e4c151008b05e80099
:10132000fba79f001b407800834f50000300320052
:10133000000020008b0178000c0037000fa99700f7
:10134000c201780082af9f0093af9f007fa29700f9
:101350000402e800f4a79f00100037006a00b900fb
:101360000003b100020040008301e8001301fb000c
:1013700001fd2f0082804000e98f5000f7ff36000a
:1013800090af9f00f3a79f000400370008c0a000a3
:10139000e8b79f008002eb0095af9f00ccc6b3007a
:1013a0006fb19700ffa1970033447800a8679f00b2
:1013b0008c4f54002b003200e2b79f00f3a79f0030
:1013c000c3c6b300834f540014003c004cc6b300a6
:1013d0008c4f5400e600320009003c00f4c151007b
:1013e000834f54002d003200ebc14100834f540065
:1013f000b1003200e04f5400e2053200d300370064
:1014000063c6b300834f54001c003200e3c14100a7
:10141000834f5400cd003a00d50037003cc7b300dd
:101420008c4f54002400320007003c00f3c6b30088
:10143000834f5400150032008341e800834f54006d
:10144000c2003a001500370053c7b300834f540061
:10145000c4003200e3c14100834f5400bb003a0096
:1014600011003700700061000100280001003a00ff
:101470000101200001017100cbff37006fb397001d
:1014800006a0a000e6b79f00b9003700efb39700b1
:101490000760a000e7b79f00b50037006fb4970062
:1014a0000850a000e8b79f00efb497000970a000b3
:1014b000e9b79f00ae0037000fad97004a047800ef
:1014c0008aaf9f00a8b79f00e00f540002003a00c7
:1014d000a0cd2000a0b79f008000eb00b1b79f0017
:1014e0002fb09700bfb097004fb19700dfb19700c2
:1014f000010037008500e800810278006142780031
:10150000e04f5200fbff3a00a0b79f00b1b79f0029
:10151000c2b79f00d3b79f009faa9700e08f5200e9
:10152000050032003fb39700868f52000200310061
:1015300085037800b7b79f00bfb297000006eb00a5
:101540001fb49700850f54000100360005065400b3
:10155000efb49700688464002e003a008c01780094
:101560000dc2b300100037003e0090000004b2002e
:10157000040032001e0078000d487800000fe800db
:10158000050037008e007800000220008405070067
:10159000e10f4000030032007fb597000a05e80024
:1015a000fab79f008c0178000c06e900e08f51002b
:1015b000edff3a00170037003e0090000004b20033
:1015c000090032009e01780008017800324078005e
:1015d00080497800030fe80002047800e04f5000d3
:1015e0000a003a0011003700080178003200fb00c1
:1015f000020478008e00780086bf9f00680507000f
:101600000fbb9700e10f4000080032008d06e80094
:1016100006003700ffb69700080378002fb4970044
:10162000bfb497004fb59700dfb597000900780069
:101630008004e900e00f5000dfff3a00fdb79f0093
:10164000a8b79f00b9b79f00cab79f00dbb79f003c
:1016500006047800e00f5400450532001100370001
:101660003e0090000004b200040032001e0078002a
:101670000d487800000fe800050037008e00780064
:101680000002200046050700e10f40000300320081
:10169000ffb097008100e800f1b79f0008067800ce
:1016a000010037000dc2b3000c04e900e00f560042
:1016b000ebff3a002e0537000fa99700420478008f
:1016c00082af9f0008027800cfa2de0005037800f9
:1016d00086037800d4af9f00e5af9f00f6af9f0070
:1016e00087b79f000605be000404be004844de0024
:1016f000c84add0008847200a8679f006fb3970096
:101700007006630009003200e04f54000700320009
:10171000e14f440005003200b8679f00c4679f0096
:1017200027002000b7b79f00040037002fdc970088
:10173000b8679f0019002000b9b79f003afa2f0040
:101740000a854700aab79f0073ff37002bfa2f00c6
:101750008b854700abb79f0010002000b0b79f00fb
:101760006dff3700efb09700010cb300e1b79f00a9
:10177000087020006fb197000806610096023200e1
:10178000080021000804610002003200630020000c
:1017900093af9f006fb2970070046200090032009f
:1017a0000fa897004005be004004be0080af9f0018
:1017b000d8af9f00e9af9f00faaf9f008bb79f00a3
:1017c0000a0037000fa997004200be0082af9f00b9
:1017d000d40607000002be000203be00d4af9f0083
:1017e000e5af9f00f6af9f0087b79f006022b8006b
:1017f0006033b8005fa89700efa897007fa9970013
:101800008fb197001906070080027800e08f520020
:101810000c003d005fac9700efac97007fad9700e8
:101820008fb597000bf0a200d8af9f00e9af9f00e3
:10183000faaf9f008bb79f00efb497003900b30059
:10184000e9b79f000004eb00b8979f006022b80042
:101850006033b8005fa89700efa897007fa99700b2
:101860008fb197006506070080027800888f5200cc
:101870003b0032005fa89700efa897007fa9970070
:101880008fb197009c07070062fa2f000f014100fb
:101890001f0707003f9397000603e9006333b90071
:1018a000a8002000809fbe00110009000803d80096
:1018b000000378004f00be00b6979f00e00f530072
:1018c00002003d000603e900b6979f003f9697008f
:1018d0008c41ea0003407800c6fd07005faa97002c
:1018e000efaa97007fab97008fb397000b07070015
:1018f0000002be000203be00a4a79f00b5a79f0080
:10190000c6a79f00d7a79f006022b800060020004e
:1019100007ff2300d505070080027800e08f520002
:1019200002003d000c04e9000c0037006022b80002
:1019300006002000470224002fa09700bfa09700b8
:101940004fa19700dfa19700cd0507008002780026
:10195000e08f5200020035000c04e800b8979f00a9
:101960009faa9700f88f52000f003c0005407800b6
:1019700058fd07000002be000203be005fa89700ea
:10198000efa897007fa997008fb197003a0507004d
:101990000004be000205be00d8af9f00e9af9f0063
:1019a000faaf9f008bb79f003f969700e90f560054
:1019b00016003c006022b8006033b8005fa89700b2
:1019c000efa897007fa997008fb197000b0607003b
:1019d00080027800e08f5200350032005fa8970047
:1019e000efa897007fa997008fb197006c060700ba
:1019f000e00f5000e08f5800e00f5900e08f5900d1
:101a00002b003a00e10f56002900340004002000aa
:101a100005002e00b6e02200170124002fa0970039
:101a2000bfa097004fa19700dfa197008f05070087
:101a300080027800e08f520002003d0073045600df
:101a40000100370072045600b8979f006f6097003e
:101a500068fd07000002be000203be00a4a79f00ad
:101a6000b5a79f00c6a79f00d7a79f005fa89700b4
:101a7000efa897007fa997008fb197008505070011
:101a800047060700a0b79f00b1b79f00c2b79f00ed
:101a9000d3b79f006000b8006011b800d0af9f00be
:101aa000e1af9f00f2af9f0083b79f00190037009e
:101ab0005fa89700efa897007fa997008fb19700c4
:101ac00037060700a0b79f00b1b79f00c2b79f00bd
:101ad000d3b79f00630607000002be000203be00ea
:101ae0005fa89700efa897007fa997008fb1970094
:101af000ff0607000004be000205be00d8af9f002d
:101b0000e9af9f00faaf9f008bb79f000004eb0086
:101b1000b8979f0013c0b300a3679f0081c1200046
:101b2000100037000200fb004300dd000080400091
:101b30003002be002003be002fb49700bfb4970050
:101b40004fb59700dfb597000440e10005c8e100fc
:101b500006d0e10007d8e100050039000241e800a5
:101b6000a2679f002f619700f44f5100edff3a00ec
:101b700002437800bf9397009fb497008783540077
:101b80001fad97008a8353000603fb0006835300b2
:101b900096b79f00e00f5500020032000603e900ef
:101ba00096b79f00efb5970063836500030032008e
:101bb0001fb097000000e90090b79f00efb09700ba
:101bc00064836000480032006284600061866000c7
:101bd000e00f5400190032003e0390000604b200ea
:101be000080032009e067800b8c2b300e00f56002d
:101bf0000100320008c4e800884e78000d0fe800ac
:101c00000a003700d8022000e00f560001003a0019
:101c10000884e9008e00780008007800e0030700df
:101c200080027800e18f4200270032007fb19700e8
:101c30000201e800f2b79f0023003700e00f5600d2
:101c4000210032003e0390000604b200050032007d
:101c50001e04780003c2b300034c7800080fe800ac
:101c6000060037008e00780000022000cc03070039
:101c700080027800e18f420013003200ffb197002c
:101c80008301e800f3b79f000f0037003e0090008b
:101c90000004b200040032001e0078000c487800f6
:101ca000000fe800050037008e00780000032000d8
:101cb000bb030700e10f4000010032008d06e80081
:101cc0000804e900030037000cc3b3001fb49700f9
:101cd000ffb69700e00f5400ecff3c0098b79f0060
:101ce000fdb79f007a0037006fb29700680362006b
:101cf00017003a000f0037003e0090000004b200c9
:101d0000040032001e0078000c487800000fe80044
:101d1000050037008e00780000022000a0030700b5
:101d2000e10f4000010032008d06e8000804e900e0
:101d3000030037000cc2b3001fb49700ffb6970032
:101d4000e00f5400ecff3c0098b79f00fdb79f00e8
:101d5000efb297006284620061866200e00f540077
:101d6000190032003e0390000604b2000800320061
:101d70009e067800b8c2b300e00f560001003200a2
:101d800008c4e800884e78000d0fe8000a0037000c
:101d9000d8022000e00f560001003a000884e90054
:101da0008e007800080078007d030700800278002c
:101db000e18f4200460032007fb397000603e8003f
:101dc000f6b79f0042003700e00f56004000320097
:101dd0003e0390000604b200050032001e047800a5
:101de00003c2b300034c7800080fe8000600370078
:101df0008e0078000002200069030700800278004e
:101e0000e18f420032003200ffb397008703e80001
:101e1000f7b79f002e0037003e0190000204b20089
:101e20000300fb00e00f5100120032001e06780094
:101e30004300dd00008046003002be002003be00eb
:101e40000800be000a01be00fa060700a400200038
:101e5000050020006033b800fd0607000203be0045
:101e60000002be0000c3b300004e42000c0fe800a9
:101e7000130037004300dd00008046003002be0042
:101e80002003be000800be000a01be00e9060700ec
:101e9000a4002000050020006033b800ec06070015
:101ea0000203be000002be000403b0008e007800f2
:101eb000040078003a030700e10f400009003200f7
:101ec000ffb097008100e800f1b79f0005003700e0
:101ed0008dc120002fb49700bfb497004fb5970075
:101ee000dfb597002f6097008041e900a3679f004e
:101ef000e04f5000c8ff3a00110037003e0090004c
:101f00000004b200040032001e0078000c48780083
:101f1000000fe800050037008e0078000003200065
:101f20001f030700e10f4000010032000804e80031
:101f30003f9097000000e900b0979f000200370033
:101f40000cc3b3007fb497003f909700e00f5000a0
:101f5000eaff3c00f8b79f001fa9970023c1b30018
:101f6000f20f510001003c00afd19700a3679f0022
:101f70002f6497008802fb001faa97008502520079
:101f800095af9f00e04f540011003200be02900058
:101f90000504b200050032001e047800e3c2b3005d
:101fa000034c7800080fe800060037008e00780028
:101fb000e0022000fa02070080027800e18f420070
:101fc00003003200ffb297008502e800f5b79f00da
:101fd0002f60970007fc07000002be000203be004e
:101fe0005fa89700efa897007fa997008fb197008f
:101ff0004a050700ea040700a0b79f00b1b79f0099
:10200000c2b79f00d3b79f008dc120003f003700ab
:10201000be0190000304b2000401fb00e08f5100f8
:10202000120032001e0678004311dd0002814600d6
:102030003202be002203be002fb09700bfb097004f
:102040004fb19700dfb197007a060700a400200087
:10205000050020006033b8007d06070009c3b30007
:10206000094e40000c0fe800160037004311dd0058
:10207000028146003202be002203be002fb097004c
:10208000bfb097004fb19700dfb197006906070016
:10209000a4002000050020006033b8006c06070093
:1020a0000203be000002be000403b0008e007800f0
:1020b00004007800ba02070000017800e10f410037
:1020c000030032007fb597000a05e800fab79f00c9
:1020d000af6597000b01fb004311dd000281460054
:1020e0003202be002203be002fb09700bfb097009f
:1020f0004fb19700dfb1970055060700a0b79f00ca
:10210000b1b79f00c2b79f00d3b79f002f61970060
:102110000242e900a4679f00e04f5100bcff3a0073
:102120000f0037003e0090000004b20004003200af
:102130001e0078000c487800000fe800050037000a
:102140008e0078000003200095020700e10f400098
:10215000010032008d06e8000804e90003003700a2
:102160000cc3b3001fac9700ffb69700e00f5400fc
:10217000ecff3a00fdb79f00efb297006881620064
:102180007b0232001fb39700e00f53007802340047
:1021900008c2b300060678003e0090000004b200ba
:1021a000040032001e00780008487800000fe800a4
:1021b000050037008e00780000022000780207003a
:1021c000e10f4000010032008d06e8000c06e90036
:1021d000f1ff3a0065023700efb29700050cb2003c
:1021e00043003a00efb39700e08f530005003d0035
:1021f0000fa897004005be004004be0080af9f00be
:1022000010003700efb09700f0826000120032003b
:102210000faa97004401be0084af9f00a29f9f00b9
:10222000b39f9f00140490004fc4de00c89f9f001e
:10223000d89f9f002f9c9700bf9c97004f9d9700b1
:10224000df9d9700a8b79f00b9b79f00cab79f004e
:10225000dbb79f000b0037008fac9700c9027800f6
:1022600089af9f0005007800cf80de000101780073
:1022700082017800a0b79f00b1b79f00c2b79f004e
:10228000d3b79f002fb29700bfb297004fb397000c
:10229000dfb39700e00f5200e08f5a00e00f5b00c1
:1022a000e08f5b0038003d00efb297003500b300cf
:1022b000e5b79f006044b8006055b8002fb09700a4
:1022c000bfb097004fb19700dfb1970000005400f6
:1022d00081805c0002015d0083815d00a0b79f00ea
:1022e000b1b79f00c2b79f00d3b79f002600370049
:1022f000efb09700e08f500005003d000fac970055
:102300004803be004802be0088af9f000e003700a1
:10231000efb49700f0826400100032000fa897001d
:102320004005be0080af9f00ea979f00fb979f008b
:102330008c9f9f009c9f9f006f929700ff92970039
:102340000f9b97009f9b9700a4b79f00b5b79f0076
:10235000c6b79f00d7b79f000b0037000fab9700a1
:10236000c602780086af9f000504780009002000af
:102370000a0020000b002000a8b79f00b9b79f00fb
:10238000cab79f00dbb79f009fac9700e08f540057
:102390000d003a001a0020009aaf9f002fb097005e
:1023a000bfb097004fb19700dfb19700e00f50002a
:1023b000e08f5800e00f5900e08f59000200320012
:1023c0008000eb0091af9f006fb19700020cb2004c
:1023d000d2af9f0008042000880f51003f00320058
:1023e00003003c00e00f51000800320056003700a7
:1023f00005082000dfa99700858f51001b003200df
:10240000050c2000858f51004f003a0013c0b30027
:10241000a3679f0081c12000100037000200fb006d
:102420004300dd00008040003002be002003be00fb
:102430002fb49700bfb497004fb59700dfb5970052
:102440000440e10005c8e10006d0e10007d8e10042
:102450003d0039000241e800a2679f002f6197000c
:10246000f44f5100edff3a003700370013c0b300be
:10247000a3679f0008012000090020006055b800f4
:10248000120037002fb29700bfb297004fb39700ea
:10249000dfb397000820e10009a8e1000ab0e100dd
:1024a0000bb8e10028003900450020000804d000e6
:1024b0008984d2000a85d2008b85d2008502e9008a
:1024c000faff3a000040e800a0679f002f609700e5
:1024d000f04f5000ebff3a001b00370013c0b30071
:1024e000a3679f0088002000090020006055b80005
:1024f000120037002fb29700bfb297004fb397007a
:10250000dfb397000820e10009a8e1000ab0e1006c
:102510000bb8e1000c003900350020000804d000a1
:102520008984d2000a85d2008b85d2008502e90019
:10253000faff3a000040e800a0679f002f60970074
:10254000f54f5000ebff3a002f6397000604fb00a5
:102550009fab9700870f540002003d00a7679f00c4
:10256000040037009fac9700888f540001003d00a5
:1025700098af9f001fb59700e00f5500050032008f
:10258000efb59700e3826500020032000a05e9001a
:102590009ab79f00050024006fb097008502600085
:1025a000090032009fb097001fa99700828f50004a
:1025b000030034008280500091b79f000200370072
:1025c0008001eb0093b79f002f6297000404fb008b
:1025d0008002eb00e5a79f001fb39700880f530010
:1025e0000200340008045300e8a79f00efb39700ef
:1025f000e4826300490032006283630007047800cc
:10260000e1036400e00f530019003200be029000a5
:102610000504b200080032001e067800b6c2b300fe
:10262000e08f53000100320006c3e800064e780038
:102630000c0fe8000a003700d6022000e08f53009c
:1026400001003a000683e9008e0078000600780059
:102650005301070080027800e18f4200170032002a
:10266000ffb497008904e800f9b79f001300370012
:10267000e08f530011003200be0290000504b2004a
:10268000050032001e03780003c2b300034b78003c
:10269000060fe800060037008e00780000022000d8
:1026a0003f01070080027800e18f42000300320002
:1026b0007fb597000a05e800fab79f00efa59700dd
:1026c000e08f5500050132000cc3b3000b04780005
:1026d000ffb697003e0090000004b20004003200f4
:1026e0001e0078000c487800000fe8000500370055
:1026f0008e0078000003200029010700e10f400050
:10270000010032008d06e8000804e900f1ff3a00fc
:10271000e8a79f00fdb79f00f00037006fa097006b
:10272000e00f500017003200efb09700e882600021
:1027300014003a000cc2b30000047800ffb6970002
:102740003e0090000004b200040032001e00780039
:102750000c487800000fe800050037008e00780074
:10276000000220000e010700e10f400001003200ce
:102770008d06e8000804e900f1ff3a00e8a79f0091
:10278000fdb79f006fb1970062036100e103610034
:10279000e00f530019003200be0290000504b200a1
:1027a000080032001e067800b6c2b300e08f530066
:1027b0000100320006c3e800064e78000c0fe80066
:1027c0000a003700d6022000e08f530001003a00d3
:1027d0000683e9008e00780006007800f00007000c
:1027e00080027800e18f4200bc003200ffb1970008
:1027f0008301e800f3b79f00b8003700e08f530073
:10280000b6003200be0290000504b200050032009e
:102810001e03780003c2b300034b7800060fe800e4
:10282000060037008e00780000022000dc00070060
:1028300080027800e18f4200a80032007fb297004a
:102840000402e800f4b79f00a40037000e07e90077
:1028500000042000dfaa9700808f52007a00320027
:1028600003003c00e08f5200080032008600370071
:10287000000820005fab9700800f53005d0032001e
:10288000000c2000800f53007f003a004370dd00f1
:10289000efb39700e08f530022003d0088c1200075
:1028a000000044003002be002003be0094af9f0031
:1028b000a5af9f00b6af9f00c7af9f002fb0970096
:1028c000bfb097004fb19700dfb1970059040700e0
:1028d000a0679f000004fb00cfc4de00090578005c
:1028e0008a0578001faa9700afaa97003fab970010
:1028f000cfab97000800be000a01be00b904070074
:102900002fb49700bfb497004fb59700dfb597007d
:102910000004540081845c0002055d0083855d0035
:102920001d003700df949700e08f54001f00320035
:102930002fb69700bfb697008ac12000000045005f
:102940003004be002005be000801be000c00be0021
:1029500094030700a0679f000000fb00cf80de000b
:102960000801be009f0307000001560081815e0040
:10297000e29f9f00f39f9f008001eb0083a79f00d1
:102980000002eb0094a79f006f9c9700ff9c9700ac
:102990000fa597009fa59700a8b79f00b9b79f0004
:1029a000cab79f00dbb79f000e00370089c1200027
:1029b000690178002fb59700811f78001100090088
:1029c0000285d800cf007800a2002000811f780087
:1029d000110009000280d80001007800cf007800c3
:1029e000a0679f00af6597000b43b000ab679f00e7
:1029f0002500370084cb20004f909700e00f500057
:102a000001003a0094cc20004270dd002fb4970002
:102a1000bfb497004fb59700dfb5970080027800ec
:102a20008502e900050033008b05d1000a85d3003b
:102a30008984d3000884d300f9ff37006f00640055
:102a4000644078000f0037006370b9002fb497001e
:102a5000bfb497004fb59700dfb59700000278002c
:102a60000402e900050033008b05d1000a85d3007c
:102a70008984d3000884d300f9ff370067406400dd
:102a80000043b000a0679f009fb297003500900000
:102a90000004b20007003200150178002f60970093
:102aa00000497800820ae800e04f500007003a0031
:102ab000130037002f6397000600fb009fb09700bc
:102ac00037000700e10f40000d003200ffb3970010
:102ad0008703e800f7b79f00090037006fb497003d
:102ae00070046400d8979f00efb497000902b20009
:102af000c9979f000e0578009ab79f001faf9700f7
:102b0000e00f570051ff3a001fb79700efb597004d
:102b100068816500160032006fa09700e00f50003a
:102b20001300340008c2b30000067800ffb6970017
:102b30003e0090000004b200040032001e00780045
:102b400008487800000fe800050037008e00780084
:102b50000002200012000700e10f400001003200d7
:102b60008d06e8000c06e900f1ff3a00fdb79f0072
:102b7000ffa0970091427800a5679f00e0cf520028
:102b800084f93a007fb097004f0778004f06be00e7
:102b90004f05be004f04be002f05b1000000060027
:102ba000889fbe0001047800b80090006281600038
:102bb0008084eb003c003200810178000320b200e9
:102bc0001801900002003a00e00f510036003a0070
:102bd0000190a0003104980080047800f90fb20041
:102be000e00f510002003a0028009000000c78002d
:102bf000ea8f540006003a00010078000008b20095
:102c000003003a0088007800d0002000e4ff0700ad
:102c100018009000d8009000810f50000b00320087
:102c20000000e800100498001800780009487800b7
:102c3000000ce80010c0b30081d02000804878006c
:102c4000ea8f540018003a00050037008800780029
:102c50000940780017000700800478001200370050
:102c6000380090000010b2000f00320018019000f0
:102c7000a8009000480090005000070098009000c5
:102c8000810f500004003200380090000003b300b0
:102c9000300498008084eb000000eb0010049800e2
:102ca00028009000000c7800090078004f04be0056
:102cb000000006000200fa00889fbe00a0ff9f00ef
:102cc0000104780038009000800078000104b20010
:102cd00033003a00e200600005003a000003b30050
:102ce00030049800110498000080eb002e0037009b
:102cf000d8049000e08f540006003a001200200033
:102d0000e6805700480090002c0007001904980046
:102d100023003700a8009000e08f500008003a0020
:102d2000b1d0200021049800010c7800210020007f
:102d300051049800110498000030a000300498005d
:102d400018019000a8009000480090001b000700a8
:102d5000280090008080eb0011049800aff89700e5
:102d600001487800000ce8002ff89700ea4f500067
:102d70000b003a00380090000010b200080032004a
:102d800018019000a8009000480090000b00070078
:102d90000000eb0010049800a8009000010c7800df
:102da000aff897000100fb004f04be000080fa005e
:102db0000000060000c0da00000006000a00fa0069
:102dc000e20f500021003e0070688000e10f5000cb
:102dd0000600320085232000442320002323200006
:102de00000232000e08f520004003a0085222000da
:102df0004422200023222000002220000600280078
:102e00009003630002003a00870a780010087300fc
:102e1000004020001300600001003a0013a0a00051
:102e20000200780006003700930278000510b20017
:102e3000fdff3200b102fb00050a78000000e90046
:102e4000e00f5000f8ff3a00080037003300200080
:102e5000b3bf9f00c0bf9f00d1bf9f00e2bf9f00d4
:102e60006a805700d3ff07006fb99700020078000f
:102e70000080fa00000006002800fa00889fbe00cb
:102e80008a9fbe008c9fbe00070678008786690077
:102e90000c003b00030478008704780008f0a100d0
:102ea00009f0a100840f5000858f5800860f59004b
:102eb000890f5c00030033000cf0a20001003a000f
:102ec0000cf0a100fe0007006400e1005f0032008a
:102ed000780147006408e100610032006c0147009e
:102ee000748557003200be001201be003a04be00d5
:102ef0001a05be001e039000be0a90008503530011
:102f000006003d000004fd008104fd000205fd00f7
:102f10008305fd008703ea00050378000df8a30090
:102f20000400320060041400e0841c0060051d00f1
:102f3000e0851d006022b8007d0320000d38e1000f
:102f40008006eb000b0039004433dd00f300b200d3
:102f50008301730039003700848272000d0278000b
:102f6000e10664008b85d1000a85d3008984d300f3
:102f70000884d3008703e900f7ff3b000800400006
:102f8000898048000a0149008b81490004003b0008
:102f900060001000e080180060011900e081190055
:102fa0000358a300090032008d82720084827200ef
:102fb000610260008301d1000281d3008180d300cf
:102fc0000080d3000603e8001b0037000348a3007d
:102fd00017003a000600e000170034000603e9007d
:102fe0000d00a30000004800818048000201490054
:102ff000838149000348a3000f003a000600e00067
:10300000090034000603e900000040008180480008
:10301000020149008381490001003a000003eb00ee
:103020000348a300f5ff32006022b8000200370019
:1030300084827200618266007500070003f0a100bf
:103040000cf0a70003f0a000b100370064014700b6
:103050006408e10002003a000df8a300a9003a005c
:103060003200be001201be00a90037008f1fd10040
:10307000120307008f87e9000000e000000006004f
:10308000809feb000d0307008f87e9000000e00040
:10309000000006002800fa00889fbe008a9fbe003c
:1030a0008c9fbe0003866b00850007006400e10072
:1030b000440032006408e1004a0032006100e1008f
:1030c000460032006108e10049003200ec0647008a
:1030d0006000b8003d02be003d03be00f48657000c
:1030e0006011b8003d04be003d05be007d03200018
:1030f0000b0037000000a0008d06e900130032002d
:103100000402420085824a0006034b0087834b007d
:10311000000040008180480002014900838149008d
:103120000802520089825a000a035b008b835b000d
:10313000f0ff3b000802420089824a000a034b006c
:103140008b834b008d06e900edff3a00848272000c
:1031500086827200f707b200878272000100320097
:10316000150020001e0490003e0b90000603540042
:10317000e63fb0000368a300070032000000a7008c
:103180000500a0008301d1000281d3008180d3001b
:103190000080d3000603e8008301d1000281d30040
:1031a0008180d3000080d3000002eb000482d200b3
:1031b0001700070003f0a1000cf0a70003f0a00027
:1031c00053003700640247006408e1004d003200fc
:1031d0003400be003401be00f6ff37006108e10094
:1031e000480032006011b8006000b800f1ff3700fd
:1031f00003ff270002002000fbff3700801feb00c9
:10320000ae0207008f87e9000000e0000000060022
:103210001800200057002000080453000d003d0056
:103220000600200097fc2f000740e1001e0034003c
:1032300084827200610260008301d1000281d300a8
:103240008180d3000080d3000804e800f8ff3a0032
:103250004700200061046000050474000404640059
:103260000d00320061004000e0804800600149002c
:10327000e081490003b8a500070032000603e8001a
:103280006538e10004003a008301d1000281d300d7
:103290008180d3000080d300f87f20000830e10057
:1032a00003003500080378006000b8006011b80022
:1032b0004433dd00f300b200830173000000060018
:1032c000680447000294be000094be00fc0447005e
:1032d0008694be008494be0009007800c0020700f6
:1032e00008007800be02070099007800814f700046
:1032f0000b003b000800be00990207004f00b10020
:1033000003003700f3ff2700f2ff2f006110b90020
:103310004f06be004f05be004f04be000080fa00fd
:1033200000000600810378007af607000001be0065
:103330006000b8000478a30013003a006220e100a6
:1033400015003e000d0039008301d1000281d30039
:103350008180d3008301d1000281d3008180d3001a
:103360008301d1000281d3008180d3000538b000f1
:10337000c42add00f300b2008381720007f0a700c9
:1033800003f0a00000000600f3ff2700f2ff2f006b
:103390006110b900fbff370003ff2700f7ff37007c
:1033a0001400fa00889fbe008a9fbe008c9fbe005a
:1033b0000004be000205be00680047000a90be007f
:1033c0000890be00860207000070a7000bf0a10065
:1033d0000bf8a30020003a009e0990000e0990000f
:1033e000fe0090006e0090009e029000344320008a
:1033f00084825200c6ff32000a003c00b4fc2f0059
:103400000428e100140034008301d1000281d300bc
:103410008180d3000080d3008502e800faff3a00e3
:10342000bbff3700b40020000428e10007003c0087
:10343000000040008180480002014900838149006a
:103440008502e900faff3a00b1ff370003002800c7
:1034500002002000010037006011b8006000b800d1
:10346000abff3700889fbe0000827000040271002d
:10347000048271002400320036432000c500200081
:103480008383cf000a0039000541b1008283cf0059
:10349000070039000541b1008183cf0004003900e5
:1034a0000541b1008083cf00010039000541b10022
:1034b00085c353006022b800120032000a003b00ae
:1034c00084827200610260008301d1000281d30016
:1034d0008180d3000080d3000603e8008743e80022
:1034e000f7ff3a00070037000000400081804800e5
:1034f00002014900838149000603e9008743e9008e
:10350000f9ff3a0042ff07004f04be00000006002a
:10351000dd01070005097800000006002800fa0018
:10352000889fbe008a9fbe008c9fbe0003866b00f2
:1035300063ff07000028a30064003a000128a300ed
:1035400067003a000008a30062003a000108a300e7
:1035500065003a001e009000be0890008106400001
:10356000ed3fb100f4805700ee019000111ab80051
:103570008e099000311bb8009e099000311cb800e4
:10358000511db800f485570046000700fe01900069
:103590003a0007008b85e8003e0007008e09900086
:1035a00040000700ee019000340007008b85e80022
:1035b000380007008e099000400007009e09900027
:1035c0001b18b800890440000a854800fe019000dd
:1035d000340007008b85e80038000700ee019000fa
:1035e000300007008e0990001b18b80089044000c5
:1035f0000a8548000a98a30008003a000402420025
:1036000085824a0006034b0087834b0008044c0068
:1036100089844c000a054d008d06e9008482720001
:10362000850273004c3add00850272000100320011
:1036300015002000443ade001400b2004538de00d8
:10364000cb45dd000b007000c540de00cb4ddd003a
:103650008b8070004549de00cb55dd000b01710009
:10366000c551de000d037800e9fe070003f0a1005c
:103670000cf0a70003f0a00025ff37001b18b800ce
:103680008502400006834800e0834b0060044c0044
:10369000070037001b18b800060340008783480066
:1036a000faff37001b18b800870340000884480061
:1036b000e0844c0060054d00000006001b18b800b7
:1036c0000804400089844800faff37000108a3007d
:1036d0000cff3a005800be005801be00e3ff37005f
:1036e0000008a30007ff3a0009047800f9ff37003b
:1036f00007f0a200e0fd37001400fa00889fbe002a
:103700008a9fbe008c9fbe000005be000206be0060
:10371000680047000c90be000a90be00b001070090
:103720006400e1001a00320016003e006100e10072
:103730001a0032006e049000fe0490000e0b900000
:103740009e0b90006011b8009e0590000b38b100f0
:10375000d501200082817100610164008703d100de
:103760000683d3008984d3000884d3008502e9004e
:10377000f8ff3a00b6f407000df0a70001f0a00032
:10378000e3fe3700f1ff2700f0ff2f00e0fe3700d7
:1037900001f8270000002000f7ff37006000b800a4
:1037a000f5ff37006022b800060220000000d000bc
:1037b0008180d2000482d2008582d2000000a00065
:1037c0000202520083825a000300310002024200ca
:1037d00083824a000000a1000603e900f3ff3a00db
:1037e00000000600020ab900001bb9000200b80080
:1037f000810042008100430000000600889fbe0057
:103800008a9fbe003004be002005be0004044400b0
:1038100085844c0006054d0087854d000898be0044
:103820000a90be000440e10005c8e10006d0e100b6
:1038300007d8e10002003100680040001008e800ed
:103840004f05be004f04be0000000600889fbe006a
:103850008a9fbe008c1f7800000678003c04be00e2
:103860002c05be000400540085805c0006015d004c
:1038700087815d00009ebe00029ebe0010002000f9
:103880000440e10005c8e10006d0e10007d8e100ee
:10389000010039000000eb001c0e10004f067800fc
:1038a0004f05be004f04be00000006001200fa00e3
:1038b000889fbe008a9fbe008c9fbe000205be008e
:1038c0000004be00e4b79f00f5b79f0086bf9f00cd
:1038d00097bf9f000000eb00d0b79f00c0b79f00cc
:1038e000b0b79f00a0b79f0090b79f000006780078
:1038f000fd032000dfb197004fb097000381410026
:10390000bfb09700e08f510004003d002900070080
:103910007e805700b9ff070003003700250007002d
:103920007e805700c9ff0700dfb09700e08f50008e
:103930000700350014002000050020006033b800a7
:1039400008047200898472000a0573008b85730075
:103950000c06e8008d0f5600e6ff3400e08f5000a3
:1039600006003d006fb29700ffb297000fbb9700b3
:103970009fbb97007e805700a0ff07005fa89700bd
:10398000e00f500004003a001fb49700afb4970056
:103990003fb59700cfb597000800be000a01be00f2
:1039a0004f06be004f05be004f04be000080fa0067
:1039b00000000600cf01de0002817100b2b79f0057
:1039c0004f09de000000400000007100a0b79f001a
:1039d0000fb097004f01de00818040008100710030
:1039e00091b79f007faa9700cf20de000000400023
:1039f0000080700080b79f000800be000a01be0072
:103a00004f18de000402420000027200f4af9f0073
:103a10000804440089844c000a054d008b854d0044
:103a20004fb29700dfb297006fb39700ffb39700d4
:103a300000000600881f780018002000881f78000a
:103a40009aff07008f87e9004f0478000000060006
:103a5000801feb0095ff07008f87e900000006003c
:103a6000889fbe008a9fbe008c1f7800e00f500028
:103a7000e08f5800e00f5900e08f59000f003d0023
:103a80006044b8006055b8000000540081805c00bc
:103a900002015d0083815d001c0020000820e10020
:103aa00009a8e1000ab0e1000bb8e1000d003d00fb
:103ab000190007000006eb000a0037000006eb00c3
:103ac000e00f5200e08f5a00e00f5b00e08f5b00d8
:103ad00004003d006044b8006055b8000e000700c7
:103ae0001c002000d3ff0700e00f56000600320044
:103af0006022b8006033b8000000520081805a0094
:103b000002015b0083815b004f0678004f05be0019
:103b10004f04be00000006000402540085825c00d1
:103b200006035d0087835d0000000600889fbe00dd
:103b30008a9fbe008c1f7800e00f5000e08f580075
:103b4000e00f5900e08f59000d003d006044b800bf
:103b50006055b8000000540081805c0002015d00e7
:103b600083815d001c0020000820e10009a8e1001d
:103b70000ab0e1000bb8e1000d003d00080037007d
:103b80000006eb00e00f5200e08f5a00e00f5b00f0
:103b9000e08f5b0006003d006044b8006055b8004f
:103ba0000402540085825c0006035d0087835d008b
:103bb000a7ff0700e00f5600060032006022b800a1
:103bc0006033b8000000520081805a0002015b009f
:103bd00083815b004f0678004f05be004f04be0096
:103be00000000600889fbe008a9fbe008c1f7800e0
:103bf0000006eb00e00f5000e08f5800e00f590086
:103c0000e08f590007003d006044b8006055b800df
:103c10000000540081805c0002015d0083815d0032
:103c20001c002000e00f5200e08f5a00e00f5b0004
:103c3000e08f5b0007003d006044b8006055b800ad
:103c40000402540085825c0006035d0087835d00ea
:103c50000c00a20089000700e00f560006003200a9
:103c60006022b8006033b8000000520081805a0022
:103c700002015b0083815b004f0678004f05be00a8
:103c80004f04be00000006000003be0021f4070040
:103c90006220e100020032000600be0005000500bf
:103ca000e507b100f107b20004f023008480700042
:103cb00007f0a70001f0a00024000500889fbe00c7
:103cc0008a9fbe008c9fbe000404be000605be0095
:103cd000809fbe00829fbe002f0007000406780070
:103ce0000800be000a01be002b0007008406780011
:103cf0004f03be004f02be008d4f76007fb097008d
:103d000013003300f0ff2f008b8f6b0006003b0089
:103d10000d0666000c00a7000a00370007f0a60099
:103d2000100020000a003700880f5200898f5a00c7
:103d30008a0f5b008b8f5b000300390010002000ae
:103d400001003e000000200007f0a7000000ea008c
:103d50004f06be004f05be004f04be000000060027
:103d6000e48240001078a3000700320064024000a3
:103d70001178a3003400be001401be00040032001c
:103d80000330a700000006003500be001501be008c
:103d90000330a0000000060005ff27000582610037
:103da000070032000428e100010032002400050071
:103db0000600070001003a00440005000408050061
:103dc00002000700f9ff3a00140005006f8261004d
:103dd00081027000850271008502720000000600f9
:103de000800078005002be005003be004439de005f
:103df000f700b200f37f20000301610009003200e8
:103e00000218e10016003a00850172008301730078
:103e1000838173000008200015003a004000200054
:103e200013003700850172008301730083817300e2
:103e300005003a0004a8be0006a8be00100020003d
:103e40000b0037000201e9000402420085824a00ab
:103e500006034b0087834b000748a300f9ff32009d
:103e60000740a00004a8be0006a8be002000200055
:103e7000800098009200980000000600889fbe0015
:103e80008a9fbe008c9fbe000404b8000506b800df
:103e90008904460060854e000606b8000a05460003
:103ea000e0854e000706b8008b054600040eb800fa
:103eb000890446000a854e00e0854d00050eb800d5
:103ec0000a0546008b854e00060eb8008b0546009d
:103ed0000416b8000a0546008b854e000516b8008a
:103ee0008b054600041eb8008b0546000800be0086
:103ef0000a01be004f06be004f05be004f04be00c3
:043f000000000600b7
:020000040000fa
:103f0400303000000030000031000000303200008a
:103f140000300000330000003034000000300000a6
:103f240035000000303600000069000074270000ee
:103f3400732000006d650000212000006d61000009
:103f4400726900006f2100000a000000436f000046
:103f54006d6100006e6400006f2000007269000053
:103f64006365000076750000746f00000025000092
:103f74006600000053500000454500004431000035
:103f84003a20000000200000535000004545000086
:103f9400443200003a2000000025000064000000c4
:103fa40020440000495200003a2000000020000094
:103fb400504f000053310000434e0000543a0000bb
:083fc400200000000a000000cb
:020000040000fa
:103fcc000000fa000000eb00403a8800e0012000fd
:103fdc00303a8800213a800000fe2f0000806000fb
:103fec00203a8800213a8000f0f32f000080600016
:103ffc00203a88003200200080072000a109200010
:10400c003374200080497800814978008249780017
:10401c001200200060042000710520002374200091
:10402c0080497800814978008249780000000000be
:10403c00113a8000000027008080600000002300ff
:10404c00808f5000faff3a0000000000113a800007
:10405c000002200000806000e00f5000fbff3200e7
:10406c000080fa00000006000000fa00c082a900df
:10407c00c882a900c282a900ca82a9000080fa00e5
:10408c00000006000000fa0090ff2f006bf1070003
:10409c000000eb007bf1070001c4290090f82f0011
:1040ac0074f107000080fa00000006000000fa001e
:1040bc0021742000520420007305200082487800ef
:1040cc008348780042c7a9002135800000fe2f00ec
:1040dc00008060000010a0002035880011368000a0
:1040ec00f00f2e00808060000030200000807000f7
:1040fc0010368800e134800000fe2f000080600044
:10410c00a000b300e0348800e1348000f00f2e00f2
:10411c008080600000b0200000807000e0348800d7
:10412c000135800000fe2f00008060006000b300ad
:10413c000035880001358000f00f2e008080600073
:10414c000050200000807000003588002174200091
:10415c0052042000730520008248780083487800c0
:10416c0042c7a8000080eb00601988000080fa00ac
:10417c00000006000400fa0044f10700a0fa2f002a
:10418c0048f1070080482c00000f7800d055210022
:10419c00100798008560a900520520009e00900031
:1041ac001e00780061f107008560a9000080fa000c
:1041bc00000006000000fa00010f8000f08f2f00b5
:1041cc00808060000050200000807000000f88008c
:1041dc00e0e1a900e1a1a800e041a900e0c1a9002b
:1041ec00e041a800110f8000f0f82f0080806000e3
:1041fc000006200000807000100f8800e2e1a8008b
:10420c000080eb00300f88000000eb00200f8800ce
:10421c0090ff2f00e7f00700810f8000f08f2f0038
:10422c00808060000050200000807000800f8800ab
:10423c00f0e1a900f1a1a800f041a900f0c1a9008a
:10424c00f041a900910f8000f0f82f0080806000f1
:10425c000006200000807000900f8800f2e1a8009a
:10426c000080eb00b00f88000000eb00a00f88006e
:10427c0090ff2f00e0f007000080fa00000006001d
:10428c000000fa001016800070006000e00f500073
:10429c0002003200c282a90005003700101680000f
:1042ac0070006000e00f500001003a00c282a800cc
:1042bc000080fa00000006000000fa005016800092
:1042cc0070006000e00f500002003200ca82a900aa
:1042dc00050037005016800070006000e00f5000a1
:1042ec0001003a00ca82a8000080fa000000060013
:1042fc000400fa00100798000000eb00000f780093
:10430c00010037001e0fe8009e0090009003200073
:10431c000088b900000078009e0f5000f9ff3c00a7
:10432c000080fa00000006000400fa001007980054
:10433c000000eb00000f780003003700400620005f
:10434c00ebff07001e0fe8001e0090009e00780097
:10435c00808f5000f9ff35000080fa000000060045
:10436c000000fa00804f80000041eb0080007800d4
:10437c001000200085f007000080fa000000060005
:10438c000000fa00904f80000041eb0080007800a4
:10439c00200020007df007000080fa0000000600dd
:1043ac000200fa00000f78001e0078000041eb00bc
:1043bc00800078001000200074f007000080fa00e4
:1043cc00000006000200fa00000f78001e007800c2
:1043dc000041eb0080007800200020006bf007000b
:1043ec000080fa00000006000a00fa00c802a900ca
:1043fc00c822a900c882a900c922a900c982a900a3
:10440c00c9a2a900c9c2a900c9e2a900cdc2a900cc
:10441c00cd82a900f07c2000000f78000000eb009a
:10442c00100798002000280020079800b0f8200002
:10443c003007980020002000400798004e029000a2
:10444c00be0190002e0190009e0090001e0078008e
:10445c0048f00700804f80000041eb00800078009e
:10446c001000200049f00700904f80000041eb0045
:10447c00800078002000200044f007000080fa0043
:10448c00000006000e00fa00000f780012079800da
:10449c0023079800340798004507980056079800a2
:1044ac00670798001e0078001e019000ae01900076
:1044bc000288be001e0078003e019000ce019000e4
:1044cc0042009800530098001e0078005e01900096
:1044dc00ee01900002089800130898001e01780065
:1044ec006000b80020019800310198001e0178008e
:1044fc006000b80060019800710198001e017800fe
:10450c006000b80020099800310998001e0178005d
:10451c006000b80040099800510998001e0078000e
:10452c003eb99700ceb997006208980073089800be
:10453c001e0178006000b80000119800111198005d
:10454c001e0178006000b80020119800311198000d
:10455c001e0178006000b8004011980051119800bd
:10456c001e01780000002000011224006011980048
:10457c00711198001e00780011002000011898009d
:10458c000080fa00000006000600fa00000f780018
:10459c0012079800230798001e0078001e01900057
:1045ac00ae01900042109800531098000080fa0061
:1045bc00000006000600fa00889fbe008a9fbe001d
:1045cc00000f780012079800230798001e0078004f
:1045dc0000189000e10f500060003a001e007800b7
:1045ec00d0109000401090000001be001e00900002
:1045fc00ae00900070f007001e01780000119800ca
:10460c00111198001e00780040029000d00290001a
:10461c001e00780090109000001090000001be0069
:10462c000400be0045f107001e01780060019800ef
:10463c00710198001e0078001004be001e00780066
:10464c0020059000b00590001e007800001290002c
:10465c00901290001e007800f00890006008900006
:10466c000001be000400be0034f107000001be00d2
:10467c000a00be0051f007000001be000800be0099
:10468c002ef107001e0178002001980031019800de
:10469c001e00780000129000901290001e0078000e
:1046ac00b0109000201090000001be000400be006d
:1046bc0041f007000002be001e007800f0089000d8
:1046cc00600890000001be000400be0098f00700d6
:1046dc000002be001e0078009008900000089000b8
:1046ec000001be000400be0014f107001e0178009a
:1046fc0020099800310998001e0078009010900055
:10470c00001090001e0178002011980031119800c3
:10471c001e00780060029000f00290001e007800ed
:10472c00b0009000200090000001be000400be000c
:10473c0022f007000002be001e007800b0089000b6
:10474c00200890000001be000400be001bf0070012
:10475c001e01780040099800510998004f05be00d1
:10476c004f04be000080fa00000006003600f8007e
:10477c00809fbe00829fbe00849fbe00869fbe00ad
:10478c000000fa00c1772200e09d2000010001002a
:10479c000000eb00bbef07008460a9000080fa006a
:1047ac004f03be004f02be004f01be004f00be00c3
:1047bc003600f900004006000000fa008580a900d0
:1047cc000080fa00004006003600f800809fbe0012
:1047dc00829fbe00849fbe00869fbe000000fa0030
:1047ec00ca82a800d5ef0700004078002ce8b7007b
:1047fc002cc8bf008080fb0068cabf000000fb0013
:10480c00808f50000600320030538000e00f5000c3
:10481c0003003a000000eb00305388001f00370003
:10482c00325380002cc8bf00018020008100410061
:10483c00804878003153800070022000808f500037
:10484c0003003a000000eb003053880007003700eb
:10485c003153800070022000808f500003003c0018
:10486c00305380000000e800305388002cc8bf0093
:10487c008080fb0069cabf000000fb00808f5000e5
:10488c0006003a0010002000105388001000200091
:10489c00205388000000eb00305388008560a9008d
:1048ac000080fa004f03be004f02be004f01be0055
:1048bc004f00be003600f900004006000000fa0070
:1048cc008b40a9000080fa00004006000000fa00ae
:1048dc008d60a9000080fa00004006000400fa0078
:1048ec00000f7800110798009e0090001e007800c1
:1048fc00220020004bf10700e00f500002003a00ac
:10490c0010002000010037000000eb000080fa00ce
:10491c00000006000400fa00000f78001107980050
:10492c001e0090009e00780038f107000080fa000d
:10493c00000006000000fa005041800063004000b7
:10494c0006f10700804f8800504180006300400052
:10495c0002f10700904f8800cdc2a800cd82a800bc
:10496c007ffe070086fe07000080fa0000000600ac
:10497c000000fa005041800063004000f7f007008f
:10498c00804f88005041800063004000f3f0070026
:10499c00904f8800cdc2a900cd82a90070fe0700ff
:1049ac0077fe07000080fa00000006000200fa0003
:1049bc005041800063004000e8f00700000f7800d1
:1049cc000470220013002000120020009e007800ca
:1049dc0060972000040001000080fa00000006002f
:1049ec000200fa005041800063004000dbf0070039
:1049fc00000f780004702200230020001200200019
:104a0c009e00780060972000040001000080fa00ee
:104a1c00000006000200fa005041800063004000d4
:104a2c00cef00700000f78001e007800cf80de006b
:104a3c0001f00700c0548800d15488001e00780093
:104a4c00cf80de00fcef0700e0548800f1548800b2
:104a5c000080fa00000006000200fa0050418000bd
:104a6c0063004000bdf00700000f780004702200c6
:104a7c00130020000081eb009e007800609720005e
:104a8c00040001000080fa00000006000200fa0099
:104a9c005041800063004000b0f00700000f780028
:104aac0004702200230020000081eb009e0078009f
:104abc0060972000040001000080fa00000006004e
:104acc000000fa000184200020f8290091ff070063
:104adc00004a220040438800a186200050f829009b
:104aec008cff0700e04b2200904488004189200095
:104afc0080f8290087ff0700c04d2200e0458800a0
:104b0c00e18b2000b0f8290082ff0700604f2200e3
:104b1c0030478800818e2000e0f829007dff0700d7
:104b2c0000512200804888002191200010f92900b2
:104b3c0078ff070020532200d0498800c193200041
:104b4c0040f9290073ff0700c0542200204b880055
:104b5c000080fa00000006000200fa000000eb00e2
:104b6c00000f78000000eb00000f780017003700f2
:104b7c009e007800a00220000088b9008000780018
:104b8c000084200080804000504180000000e8003c
:104b9c0052ff0700e00f50000b0032009e0078001f
:104bac00a00220000088b9000000780081022000db
:104bbc0080804000008420000080400010007800bd
:104bcc0000000100040037001e0fe8001e007800f2
:104bdc00e60f5000e6ff34000080fa0000000600eb
:104bec000600fa00000f78001107980022079800c1
:104bfc001e0078009e009000110098001e007800a6
:104c0c008000eb00210098001e007800ae009000a0
:104c1c00010878000080fa00000006000200fa008b
:104c2c00000f78001e007800100090009e007800a5
:104c3c0091009000110178009e007800910078009e
:104c4c0081007100010878000080fa000000060065
:104c5c000200fa00000f78001e007800100090008f
:104c6c009e00780091009000110178009e00780061
:104c7c00910078008180ea008100610001087800d1
:104c8c000080fa00000006000400fa00000f780013
:104c9c00110798001e009000e10f500002003a002e
:104cac001e007800ddff07001e009000e10f4000a1
:104cbc0002003a001e007800e5ff07000080fa00b1
:104ccc00000006001000fa005007980061079800d9
:104cdc0072079800c802a900c822a900c882a900be
:104cec00c922a900c982a900c9a2a900c9c2a900e8
:104cfc00c9e2a900f07c2000000f78000000eb0056
:104d0c00100798002000280020079800b0f8200019
:104d1c003007980020002000400798004e029000b9
:104d2c00be0190002e0190009e0090001e007800a5
:104d3c0010ee07005e009000ee0090000108780075
:104d4c005e009000fe009000110098005e00900044
:104d5c00100078008000eb00210098005e009000ad
:104d6c00100090008000eb00210098005e00900085
:104d7c00100078008000eb00310098005e0090007d
:104d8c00100090008000eb00310098005e00900055
:104d9c0010007800a1ff07005e009000100090004a
:104dac009eff07005e00900010007800200090002d
:104dbc000041eb008000780010002000f3ed0700ac
:104dcc005e00900010009000200090000041eb006d
:104ddc008000780020002000eced07000080fa0035
:104dec00000006000200fa00000f78000080fa00b4
:104dfc00000006000800fa00000f78001107980068
:104e0c0022079800330798003e009000e10f5000f5
:104e1c0008003a001e007800100078009e009000f8
:104e2c00210098001e00780010007800ae00900061
:104e3c0095ff07003e009000e20f500008003a007a
:104e4c001e007800100090009e0090002100980039
:104e5c001e00780010009000ae0090008aff070042
:104e6c003e009000e00f500010003a001e00780049
:104e7c00100078009e009000210098001e00780021
:104e8c00100090009e009000210098001e007800f9
:104e9c0010007800ae0090007bff07001e00780029
:104eac0010009000ae00900077ff07001e00780005
:104ebc0010007800200090000041eb00800078008a
:104ecc0010002000b1ed07001e00780010009000cb
:104edc00200090000041eb008000780020002000b2
:104eec00aaed07000080fa00000006000400fa009a
:104efc00100798000000eb00000f78001e009000d7
:104f0c00100090008000e8001e0090001100980036
:104f1c001e0090009000900000712200808f5000c5
:104f2c0003003a001e0090008000eb001100980076
:104f3c000000eb00000f7800330037001e009000db
:104f4c00900090001e009000100178001e00780068
:104f5c0000004000000041001000780010007800b4
:104f6c0000017800110009008200d8008000fd00cb
:104f7c00e00f500023003a001e00900090007800d3
:104f8c001e007800000040000080400010007800f7
:104f9c0010009000e00f50001a0032001e0090002c
:104fac00900078001e007800000040000080400057
:104fbc001000780020009000000001001e009000fe
:104fcc00900078001e007800000040000080400037
:104fdc001000780010009000e10f40000900320032
:104fec001e009000900078001e0078000000400029
:104ffc000080400010007800900090008100e900d3
:10500c00110098001e0fe8001e0090002000900078
:10501c009e0f5000c9ff3c000080fa000000060003
:10502c000000fa0070f92900cded07000080fa00ad
:10503c00000006000000fa0091fc07000080fa0056
:10504c00000006000400fa00ddfb070006fc070068
:10505c000cfc070015fc070046fc0700c282a900e7
:10506c00007d2000b0fc0700e0a62000bced07008e
:10507c0050fc070092fe070080382100204f88006a
:10508c000080eb00304f880060812200404f880088
:10509c00800c2000504f88000080eb00604f88008f
:1050ac0000822200704f880020002000104f8800e2
:1050bc00409e2000000f7800a09e20001007980052
:1050cc00fe4e880002002400c12c200060962000b7
:1050dc00c3fe070002002100c12c2000e096200036
:1050ec00bffe0700e296200061962000609720002a
:1050fc00f4fe0700a0702d0031ca2300809fbe0073
:10510c006033b80004002000050024006011b800d2
:10511c00a0972000dbfc0700e4875700a0702d004f
:10512c0031ca2300809fbe006033b8000400200009
:10513c00050024006011b800c09a2000d1fc0700c3
:10514c00e4875700010037000000000010118000b8
:10515c0062006000e00f5000010032002222a90022
:10516c001011800064006000e00f5000020032005b
:10517c0000000000f5ff370020538000e00f5000c6
:10518c000d003200008020005041880080fa290078
:10519c0073ed07000080200071ed07006efe070024
:1051ac00820220008000eb00008020000fef07003f
:1051bc000000eb0020538800a14f800080382100b4
:1051cc00808f5000e0ff3a006055800071558000e0
:1051dc00809fbe0090fb2900801f7800d0822000a9
:1051ec0023ef0700e6875700c0fb29005ced0700a2
:1051fc00d08220005aed0700805580009155800028
:10520c00809fbe0090fb2900801f7800d082200078
:10521c0017ef0700e687570050fc290050ed0700f8
:10522c00d08220004eed0700000f80004b00de0006
:10523c00614060000080fb00801f7800f0fc2900ba
:10524c00801f7800d082200009ef0700e487570008
:10525c0020fd290042ed0700d082200040ed070020
:10526c0090fd29003eed0700200f8000801f780084
:10527c00f0fc2900801f7800d0822000fcee070093
:10528c00e4875700d082200035ed070040fe29004e
:08529c0033ed0700adff370000
:020000040000fa
:1052a400f0090000c8000000020000000000000037
:1052b4000000000000006400000000000000000086
:1052c40000000000000000000000000000000000da
:1052d40000000000000000000000000000000000ca
:1052e40000000000000000000000000000000000ba
:1052f40000000000000000000000000000000000aa
:105304000000000000000000000000000000000099
:105314000000000000000000000000000000000089
:105324000000000000000000000000000000000079
:105334000000000000000000000000000000000069
:105344000000000000000000000000002425000010
:1053540000000000426f6100726420007265610009
:1053640064790a0000004d0065737300616765008d
:105374002072650063656900766564000a000000b8
:105384000000000000000000000000000000000019
:105394000000000000000000000000000000000009
:1053a40000000000000000000000000000000000f9
:1053b400000000000000000000080000f0010000f0
:1053c40000000000b80c00002a00000002000000e9
:1053d4003031320033343500363738003941420039
:1053e4004344450046003000313233003435360042
:1053f40037383900616263006465660000286e0016
:10540400756c6c0029000000180c0000a00000005e
:1054140002000000010000000000000000000a007b
:105424000000000000000000006400000000000014
:1054340000000000e803000000000000000010006d
:10544400270000000000000000a08600010000000a
:105454000000000040420f00000000000000800037
:1054640096980000000000000000e100f50500002f
:105474000000000000ca9a003b0000000000000089
:10548400e40b5400020000000000e8007648170016
:10549400000000000010a500d4e800000000000097
:1054a400a0724e0018090000000040007a10f300ba
:1054b4005a0000000080c600a47e8d000300000096
:1054c40000c16f00f2862300000000008a5d7800ae
:1054d4004563010000006400a7b3b600e00d0000be
:1054e40000e889000423c7008a000000b80a00000d
:1054f4006001000002000000000000000000000045
:10550400f03f000000000000000024004000000004
:1055140000000000005940000000000000004000ae
:105524008f400000000000000088c300400000001d
:10553400000000006af840000000000000808400c1
:105544002e41000000000000d01263004100000062
:1055540000008400d7974100000000000065cd00e2
:10556400cd410000000020005fa0020042000000c6
:1055740000801d00af1544000000000040593e00ab
:1055840029460000000000000000f0007f00000039
:105594000000000000f07f00000000000000000098
:1055a400f07f0000000000000000f0007f00000019
:1055b4000000000000f07f00000000000000000078
:1055c400f07f0000000000000000f0007f000000f9
:1055d4000000000000f07f00000000000000000058
:1055e400f07f0000000000000000f0003f00000019
:1055f40000a0990099b93f000000000040e17a0042
:10560400843f00000000e0004d6250003f000000b5
:1056140000e0e200361a3f000000000080b5f80008
:10562400e43e00000000a000f7c6b0003e00000009
:1056340000a0f200d77a3e0000000000e08e79005e
:10564400453e00000000e0000b2e11003e0000006b
:1056540000e0df007cdb3d000000000000a19c00b6
:10566400c73b0000000000004c48b40039000000b3
:10567400000020006ca137000000000000000000c2
:105684000000000000000000000000000000000016
:105694000000000000000000000000000000000006
:1056a40000000000000000000000000000000000f6
:1056b40000000000000000000000000000000000e6
:1056c40000000000000000000000000000000000d6
:1056d400080d00000600000000000000e20c0000bd
:1056e4002600000002000000090d000000090d0062
:1056f40009000000000200000b0d0000000b0d006b
:105704000e02010000000000000000000000000084
:105714000602020000000000e20c00000e0d000072
:105724000200000002000000010000000000000070
:020000040000fa
:0200000401f009
:04000c00fbff0000f6
:020000040000fa
:0200000401f009
:040010007dff000070
:020000040000fa
:0200000401f009
:040014007fff00006a
:00000001FF
